:100000000C9421010C94882A0C94B92A0C94EA2AA5
:100010000C941B2B0C944C2B0C947D2B0C94AE2B22
:100020000C94DF2B0C944B010C944B010C944B0162
:100030000C944B010C944B010C944B010C944B0110
:100040000C944B010C944B010C944B010C944B0100
:100050000C944B010C944B010C944B010C94102C00
:100060000C944B010C9445300C944B010C944B01B7
:100070000C944B010C944B010C944B010C944B01D0
:100080000C944B010C944B010C944B010C944B01C0
:100090000C9486300C944B010C944B010C944B0146
:1000A0000C944B010C944B010C944B010C944B01A0
:1000B0000C944B010C944B010C944B010C944B0190
:1000C0000C944B010C944B010C944B010C94C730D5
:1000D0000C944B010C944B010C9408310C944B0183
:1000E0000C944B0100002100240027002A002D0061
:1000F0003000330001010000040107010A01000083
:100100002200250028002B002E00310034000201BF
:100110000000050108010B0100002000230026005B
:1001200029002C002F00320000010000030106010D
:10013000090105050505070508080808020202026D
:100140000A0A080804040404010101010101010173
:100150000303030303030303040707070C0C0C0C3E
:100160000C0C0C0C02020202060606060606060627
:100170000B0B0B0B0B0B0B0B0102102020080810B4
:100180002040102040800201020108040201010207
:1001900004081020408080402010080402018004E0
:1001A000020180402010080402010804020101023B
:1001B0000408102040800102040810204080000044
:1001C000090A02080B0C0D070603040100000000D9
:1001D000000000000000000000000000000000001F
:1001E00000000000000000000000100F0E000000E2
:1001F00000000000000000000000000000000000FF
:1002000000000000494E46494E4954594E414ECDDA
:10021000CCCC3D0AD7233C17B7D13877CC2B3295BD
:1002200095E6241FB14F0A000020410000C842009B
:10023000401C4620BCBE4CCA1B0E5AAEC59D740065
:100240009D3211241FBECFEFD1E2DEBFCDBF17E03C
:10025000A0E0B2E0E4E7FDE600E00BBF02C00790DB
:100260000D92AE3CB107D9F71DE0AEECB7E001C08E
:100270001D92A13AB107E1F712E0C2E4D2E004C056
:100280002297FE010E947236C034D107C9F70E943E
:1002900019290C94B8360C940000A0E0B0E0E3E516
:1002A000F1E00C948736EC015B016115710519F0E2
:1002B000FB0191838083F9908F2D90E00E94763628
:1002C000892BC9F7FDE2FF1621F4F990EE24E3949F
:1002D00005C02BE2F21609F4F990EE248E010150CC
:1002E0001040C80164E072E043E050E00E94AD02BB
:1002F000892B01F58E010E5F1F4FC80167E072E088
:1003000045E050E00E94AD02892B19F48E01095F8F
:100310001F4FA114B10419F0F50111830083E0FC13
:1003200004C070E090E080E814C070E090E080E8E5
:100330006FEF08C1C8016CE072E043E050E00E943A
:10034000AD02892B69F4A114B10429F470E090E0A6
:1003500080EC6FE7F7C02296F501D183C083F6CF1A
:100360008824992440E050E060E070E0EF2DE053F5
:10037000EA30A0F5F2E0EF2A8E2D90E09C01287083
:100380003070E2FE06C0232B79F50894811C911C85
:100390002BC0232B19F0089481089108DB01CA01B6
:1003A00012E0880F991FAA1FBB1F1A95D1F7480F9B
:1003B000591F6A1F7B1F440F551F661F771F4E0F63
:1003C000511D611D711D483929E9520729E962074C
:1003D00029E1720748F084E0E82A06C0EE3F31F4D4
:1003E000E3FC39C098E0E92AF990C0CFE53311F079
:1003F000E53189F529912D3219F4E0E1EE2A05C0A5
:100400002B3219F081E090E003C0299182E090E066
:10041000E22FE053EA3018F0C81BD90B1CC020E0D3
:1004200030E0FCE020383F075CF4C901880F991FD9
:10043000880F991F280F391F220F331F2E0F311DD0
:10044000E991E053EA3068F3E4FE03C0309521956A
:100450003F4F820E931ECE2CDD24E1FE07C0A11477
:10046000B10421F02197F501D183C083CB01BA01FA
:100470000E946F347B018C01F3E0CF22DD2423E066
:10048000C216D10421F417FB109517F910955701E6
:100490006801C801B70120E030E040E050E00E9470
:1004A000D233882309F44AC097FE0DC023E2E22E1E
:1004B00022E0F22E9094819491089394C0E2D0E0CF
:1004C00000E010E012C09BE3E92E92E0F92EF6CF97
:1004D000F7012591359145915491C601B5010E94CE
:1004E00025355B016C018C1A9D0A8C169D0684F7DC
:1004F000D595C7950F5F1F4F0630110529F08CEF7A
:100500009FEFE80EF91EF1CFC501D6017C018D01E8
:100510008C2D880F8D2D881F8F3F51F0C601B5019E
:1005200020E030E040E050E00E94D233882331F4F4
:1005300082E290E09093A00D80939F0D7E2D9F2DE1
:10054000802F612F272F392F482F562FB901CA012D
:10055000CDB7DEB7ECE00C94A336FB01DC014150D3
:10056000504088F08D9181341CF08B350CF4805E06
:10057000659161341CF06B350CF4605E861B611173
:1005800071F3990B0895881BFCCFFC0181918617AC
:1005900021F08823D9F7992708953197CF0108953D
:1005A000CF93DF93AC01EFE0F7E0C1E0D0E06081F2
:1005B0007181461757075CF5FE013197EE0FFF1F5B
:1005C000EE0FFF1FDF01A55FB84F2D913C91E35F58
:1005D000F84F0190F081E02D421B530BCC0FDD1F33
:1005E000CC0FDD1FC35FD84F888199818E1B9F0B75
:1005F000621B730B9C01429FC001439F900D529F51
:10060000900D11240E940C366E0F7F1F10C09E01AA
:100610002F5F21963496C431D10549F6243119F063
:1006200060E070E004C06091590770915A07CB01F7
:10063000DF91CF9108958091E107813031F483E516
:100640009DE060E072E00E94A92E80E060E00E94E0
:100650003C2D06C061E070E080E090E00E94832CB9
:1006600089E00E94C72D892BA9F38091E107813091
:1006700031F483E59DE06AE172E00E94A92E0895BD
:100680000CC083E59DE060E372E00E94A92E6CE25D
:1006900071E080E090E00E94832C83E59DE00E9461
:1006A0004232882371F308952F923F924F925F92C6
:1006B0006F927F928F929F92AF92BF92CF92DF9272
:1006C000EF92FF920F931F93DF93CF93CDB7DEB7D7
:1006D00064970FB6F894DEBF0FBECDBF9C8B8B8B9B
:1006E000788B6F875A8B498B10921F0A10921E0AC3
:1006F000E090DE09F090DF090091E0091091E10936
:10070000A090E209B090E309C090E409D090E50917
:10071000C801B701A60195010E94213588230CF478
:1007200034C2C801B7012091E6093091E709409130
:10073000E8095091E9090E94213588230CF425C26B
:100740006091EE097091EF098091F0099091F109A3
:1007500020E030E040EA51E40E9425356093160A1B
:100760007093170A8093180A9093190ACEC180914A
:100770001A0890911B082B893C892817390709F022
:10078000C2C060E070E080E89FE32091FB063091FA
:10079000FC064091FD065091FE060E94D6337B0177
:1007A0008C016091EE097091EF098091F0099091B0
:1007B000F10920E030E040EA51E40E9425359B0138
:1007C000AC01C801B7010E94D6339B01AC01609314
:1007D0001A0A70931B0A80931C0A90931D0AC80181
:1007E000B7010E94D6336093160A7093170A80935C
:1007F000180A9093190A2091FA093091FB09409147
:10080000FC095091FD090E9421351816A4F580912C
:10081000E107813031F483E59DE063E372E00E94FB
:10082000A92EE090FA09F090FB090091FC091091C3
:10083000FD0960E070E080E89FE32091FB063091C5
:10084000FC064091FD065091FE060E94D633A80199
:1008500097010E94D63360931A0A70931B0A809303
:100860001C0A90931D0AE092160AF092170A009350
:10087000180A1093190A00911E0A10911F0A0F5F9F
:100880001F4F10931F0A00931E0A6091EE0970918A
:10089000EF098091F0099091F10920E030E040EA01
:1008A00051EC0E9425356B017C01000F111F025B8A
:1008B000174F2091160A3091170A4091180A50914B
:1008C000190A0E946E334B015C01C701B6012091E9
:1008D000FA093091FB094091FC095091FD090E94F1
:1008E0006E339B01AC01C501B4010E94D63320E0F8
:1008F00030E44CE156E40E9425350E943E34D80194
:100900006D937C93E2C0E0911E0AF0911F0AFE876E
:10091000ED872B893C89E217F3070CF0FCC060904F
:10092000160A7090170A8090180A9090190A809100
:10093000FA099091FB09A091FC09B091FD09898702
:100940009A87AB87BC87C401B30129853A854B855B
:100950005C850E94D23388230CF0DDC0E0900A0A47
:10096000F0900B0A00910C0A10910D0A60E070E003
:1009700080E89FE32091FB063091FC064091FD0644
:100980005091FE060E94D6331B012C01C401B30115
:10099000A40193010E9425355B016C01C801B701D8
:1009A000A80197010E946E33A20191010E94253592
:1009B0009B01AC01C601B5010E946E330E948C35CB
:1009C000A40193010E946D33A80197010E94D633C0
:1009D0009B01AC0160931A0A70931B0A80931C0A56
:1009E00090931D0AC201B1010E94D6337B018C0194
:1009F0006093160A7093170A8093180A9093190A45
:100A000029853A854B855C850E9421351816ECF4C2
:100A1000C201B10129853A854B855C850E94D63398
:100A200060931A0A70931B0A80931C0A90931D0A04
:100A300089859A85AB85BC858093160A9093170AA1
:100A4000A093180AB093190A66C08D849E840894F6
:100A5000811C911C90921F0A80921E0A6091EE09DF
:100A60007091EF098091F0099091F10920E030E058
:100A700040EA51EC0E9425355B016C01880C991C01
:100A8000AEE4B8E08A0E9B1EC801B701A60195012D
:100A90000E946E337B018C0169857A858B859C85EC
:100AA000A60195010E946E339B01AC01C801B701FC
:100AB0000E94D63320E030E44CE156E40E94253514
:100AC0000E943E34F4017183608380911E0A9091EC
:100AD0001F0A883C91059CF08091E107813061F408
:100AE00083E59DE06BE572E00E94A92E83E59DE021
:100AF00062EC72E00E94A92E1092A5070CC02B890F
:100B00003C89215030403C8B2B8B8B899C8918165B
:100B100019060CF42CCE8091E107813009F097C4BE
:100B200070E5E72E78E0F72E01E010E026C083E5BF
:100B30009DE066EE72E00E948A2ED7016D917D9154
:100B40007D01882777FD8095982F0E94713420E0E1
:100B500030E44CE156E40E94D6330E943E34AB01AF
:100B6000BC0183E59DE024E030E00E94A42F83E5F2
:100B70009DE00E94922E0F5F1F4F80911E0A909160
:100B80001F0A801791079CF662C4C601B501A8012F
:100B900097010E94213588230CF436C2C601B501A5
:100BA0002091E6093091E7094091E8095091E9095F
:100BB0000E94213588230CF427C26091F2097091BC
:100BC000F3098091F4099091F50920E030E040EAC2
:100BD00051E40E9425356093160A7093170A80939A
:100BE000180A9093190AD0C180911C0890911D0891
:100BF000EF85F889E817F90709F0C4C060E070E0F4
:100C000080E89FE32091FF063091000740910107A3
:100C1000509102070E94D6337B018C016091F2094A
:100C20007091F3098091F4099091F50920E030E08A
:100C300040EA51E40E9425359B01AC01C801B7018F
:100C40000E94D6339B01AC0160931A0A70931B0A71
:100C500080931C0A90931D0AC801B7010E94D633E5
:100C60006093160A7093170A8093180A9093190AD2
:100C70002091FE093091FF094091000A5091010A2C
:100C80000E9421351816A4F58091E107813031F4D6
:100C900083E59DE063E372E00E94A92EE090FE09E7
:100CA000F090FF090091000A1091010A60E070E0E5
:100CB00080E89FE32091FF063091000740910107F3
:100CC000509102070E94D633A80197010E94D633A3
:100CD00060931A0A70931B0A80931C0A90931D0A52
:100CE000E092160AF092170A0093180A1093190A54
:100CF00000911E0A10911F0A0F5F1F4F10931F0AC9
:100D000000931E0A6091F2097091F3098091F40931
:100D10009091F50920E030E040EA51EC0E94253541
:100D20006B017C01000F111F025B174FC701B60159
:100D30002091160A3091170A4091180A5091190A09
:100D40000E946E334B015C01C701B6012091FE0980
:100D50003091FF094091000A5091010A0E946E33C0
:100D60009B01AC01C501B4010E94D63320E030E400
:100D70004CE156E40E9425350E943E34D8016D9323
:100D80007C93E2C0E0911E0AF0911F0AFC8BEB8B72
:100D90002F853889E217F3070CF0FCC06090160A23
:100DA0007090170A8090180A9090190A8091FE0995
:100DB0009091FF09A091000AB091010A8D839E8352
:100DC000AF83B887C401B3012D813E814F8158851F
:100DD0000E94D23388230CF0DDC0E0900E0AF09020
:100DE0000F0A0091100A1091110A60E070E080E88B
:100DF0009FE32091FF063091000740910107509139
:100E000002070E94D6331B012C01C401B301A401C7
:100E100093010E9425355B016C01C801B701A8014F
:100E200097010E946E33A20191010E9425359B011A
:100E3000AC01C601B5010E946E330E948C35A4013D
:100E400093010E946D33A80197010E94D6339B0144
:100E5000AC0160931A0A70931B0A80931C0A90934A
:100E60001D0AC201B1010E94D6337B018C0160933F
:100E7000160A7093170A8093180A9093190A2D8105
:100E80003E814F8158850E9421351816ECF4C2012D
:100E9000B1012D813E814F8158850E94D6336093E8
:100EA0001A0A70931B0A80931C0A90931D0A8D8165
:100EB0009E81AF81B8858093160A9093170AA093FC
:100EC000180AB093190A66C08B889C880894811C04
:100ED000911C90921F0A80921E0A6091F2097091F3
:100EE000F3098091F4099091F50920E030E040EA9F
:100EF00051EC0E9425355B016C01880C991CAEE415
:100F0000B8E08A0E9B1EC801B701A60195010E9498
:100F10006E337B018C016D817E818F819885A60166
:100F200095010E946E339B01AC01C801B7010E947C
:100F3000D63320E030E44CE156E40E9425350E948F
:100F40003E34F4017183608380911E0A90911F0AE0
:100F5000883C91059CF08091E107813061F483E544
:100F60009DE06BE572E00E94A92E83E59DE062ECB6
:100F700072E00E94A92E1092A5070CC02F85388917
:100F800021503040388B2F878F8598891816190685
:100F90000CF42ACE8091E107813009F058C240E577
:100FA000E42E48E0F42E01E010E026C083E59DE049
:100FB00066EE72E00E948A2ED7016D917D917D01CF
:100FC000882777FD8095982F0E94713420E030E4C7
:100FD0004CE156E40E94D6330E943E34AB01BC0182
:100FE00083E59DE024E030E00E94A42F83E59DE0AE
:100FF0000E94922E0F5F1F4F80911E0A90911F0A30
:10100000801791079CF623C26091F6097091F70949
:101010008091F8099091F90920E030E040EA51E42C
:101020000E9425356093160A7093170A8093180A58
:101030009093190ACEC180911E0890911F08E989EA
:10104000FA89E817F90709F0C2C060E070E080E8AB
:101050009FE32091030730910407409105075091C9
:1010600006070E94D6337B018C016091F6097091CE
:10107000F7098091F8099091F90920E030E040EA01
:1010800051E40E9425359B01AC01C801B7010E94C3
:10109000D6339B01AC0160931A0A70931B0A8093AC
:1010A0001C0A90931D0AC801B7010E94D6336093B1
:1010B000160A7093170A8093180A9093190A2091C0
:1010C000020A3091030A4091040A5091050A0E94D5
:1010D00021351816A4F58091E107813031F483E5BC
:1010E0009DE063E372E00E94A92EE090020AF09076
:1010F000030A0091040A1091050A60E070E080E89C
:101100009FE3209103073091040740910507509118
:1011100006070E94D633A80197010E94D633609338
:101120001A0A70931B0A80931C0A90931D0AE0927E
:10113000160AF092170A0093180A1093190A0091E0
:101140001E0A10911F0A0F5F1F4F10931F0A009372
:101150001E0A6091F6097091F7098091F809909143
:10116000F90920E030E040EA51EC0E9425356B019E
:101170007C01000F111F025B174F2091160A30915E
:10118000170A4091180A5091190A0E946E334B01B8
:101190005C01C701B6012091020A3091030A409117
:1011A000040A5091050A0E946E339B01AC01C501EF
:1011B000B4010E94D63320E030E44CE156E40E94B2
:1011C00025350E943E34D8016D937C93E2C0E091B6
:1011D0001E0AF0911F0AFC8BEB8B29893A89E217D2
:1011E000F3070CF0FCC06090160A7090170A80900C
:1011F000180A9090190A8091020A9091030AA0910E
:10120000040AB091050A89839A83AB83BC83C40125
:10121000B30129813A814B815C810E94D2338823BA
:101220000CF0DDC0E090120AF090130A0091140A4D
:101230001091150A60E070E080E89FE320910307B9
:101240003091040740910507509106070E94D6335C
:101250001B012C01C401B301A40193010E94253597
:101260005B016C01C801B701A80197010E946E33B0
:10127000A20191010E9425359B01AC01C601B50177
:101280000E946E330E948C35A40193010E946D333D
:10129000A80197010E94D6339B01AC0160931A0A02
:1012A00070931B0A80931C0A90931D0AC201B1011E
:1012B0000E94D6337B018C016093160A7093170A43
:1012C0008093180A9093190A29813A814B815C8195
:1012D0000E9421351816ECF4C201B10129813A812E
:1012E0004B815C810E94D63360931A0A70931B0A6B
:1012F00080931C0A90931D0A89819A81AB81BC81DD
:101300008093160A9093170AA093180AB093190AAB
:1013100066C08B889C880894811C911C90921F0A3F
:1013200080921E0A6091F6097091F7098091F80980
:101330009091F90920E030E040EA51EC0E94253517
:101340005B016C01880C991CAEE4B8E08A0E9B1E10
:10135000C801B701A60195010E946E337B018C0183
:1013600069817A818B819C81A60195010E946E33EF
:101370009B01AC01C801B7010E94D63320E030E4E4
:101380004CE156E40E9425350E943E34F4017183FD
:10139000608380911E0A90911F0A883C91059CF001
:1013A0008091E107813061F483E59DE06BE572E0B7
:1013B0000E94A92E83E59DE062EC72E00E94A92EB6
:1013C0001092A5070CC029893A89215030403A8BE8
:1013D000298B89899A89181619060CF42CCE8091CC
:1013E000E1078130A1F590E5E92E98E0F92E01E0C2
:1013F00010E026C083E59DE066EE72E00E948A2E32
:10140000D7016D917D917D01882777FD8095982F7B
:101410000E94713420E030E44CE156E40E94D6335F
:101420000E943E34AB01BC0183E59DE024E030E046
:101430000E94A42F83E59DE00E94922E0F5F1F4F14
:1014400080911E0A90911F0A801791079CF664965E
:101450000FB6F894DEBF0FBECDBFCF91DF911F91C5
:101460000F91FF90EF90DF90CF90BF90AF909F9043
:101470008F907F906F905F904F903F902F90089546
:101480002F923F924F925F926F927F928F929F9294
:10149000AF92BF92CF92DF92EF92FF920F931F9382
:1014A000DF93CF93CDB7DEB766970FB6F894DEBF64
:1014B0000FBECDBF9E8B8D8B7A8B698B5C8B4B8BDC
:1014C0006091F2077091F3078091F4079091F5070E
:1014D0002091E2073091E3074091E4075091E5073E
:1014E0000E946D336D877E878F87988B20E030E078
:1014F00040E050E00E94213518164CF08D859E8505
:10150000AF85B889B0588D879E87AF87B88B8D859A
:101510009E85AF85B8898093DE099093DF09A093FB
:10152000E009B093E1096091F6077091F7078091A7
:10153000F8079091F9072091E6073091E70740916D
:10154000E8075091E9070E946D3369877A878B8796
:101550009C8720E030E040E050E00E9421351816E2
:101560004CF089859A85AB85BC85B05889879A8768
:10157000AB87BC8789859A85AB85BC858093E2095A
:101580009093E309A093E409B093E5096091FA0709
:101590007091FB078091FC079091FD072091EA076D
:1015A0003091EB074091EC075091ED070E946D33AD
:1015B0006D837E838F83988720E030E040E050E0A9
:1015C0000E94213518164CF08D819E81AF81B8851F
:1015D000B0588D839E83AF83B8878D819E81AF8104
:1015E000B8858093E6099093E709A093E809B09342
:1015F000E9096D857E858F8598899B01AC010E94E4
:1016000025357B018C0169857A858B859C859B01BD
:10161000AC010E9425359B01AC01C801B7010E94B5
:101620006E337B018C016D817E818F8198859B015A
:10163000AC010E9425359B01AC01C801B7010E9495
:101640006E330E948C357B018C016093EA097093A4
:10165000EB098093EC099093ED096D857E858F856C
:101660009889A80197010E94D6335B016C016093B1
:10167000EE097093EF098093F0099093F109698561
:101680007A858B859C85A80197010E94D6333B0102
:101690004C016093F2097093F3098093F4099093DD
:1016A000F5096D817E818F819885A80197010E943F
:1016B000D6331B012C016093F6097093F7098093D0
:1016C000F8099093F909E0902208F090230800911E
:1016D000240810912508C801B701A60195010E94B0
:1016E000253569837A838B839C836093FA09709391
:1016F000FB098093FC099093FD09C801B701A4017F
:1017000093010E9425353B014C016093FE097093C3
:10171000FF098093000A9093010AC801B701A20152
:1017200091010E9425355B016C016093020A709360
:10173000030A8093040A9093050A6D857E858F8540
:10174000988929853A854B855C850E9421358823B7
:101750008CF06D857E858F8598892D813E814F81A6
:1017600058850E94213588232CF069817A818B81EC
:101770009C811DC069857A858B859C852D853E85DC
:101780004F8558890E94213588237CF069857A85A8
:101790008B859C852D813E814F8158850E94213506
:1017A00088231CF0C401B30102C0C601B50120E0CA
:1017B00030E543EC57E40E94D6336093060A7093F9
:1017C000070A8093080A9093090AE090060AF090AD
:1017D000070A0091080A1091090A69817A818B81B0
:1017E0009C81A80197010E94D63360930A0A7093E6
:1017F0000B0A80930C0A90930D0AC401B301A8014F
:1018000097010E94D63360930E0A70930F0A80935B
:10181000100A9093110AC601B501A80197010E9410
:10182000D6336093120A7093130A8093140A90932C
:10183000150A8091E107813009F062C083E59DE0DF
:101840000E94922E83E59DE069EE72E00E948A2E4E
:1018500083E59DE06D897E890E947F2F83E59DE071
:101860006DEF72E00E948A2E83E59DE069897A8996
:101870000E947F2F83E59DE061E173E00E948A2E44
:1018800083E59DE06B897C890E947F2F83E59DE045
:1018900065E273E00E948A2E40910A0A50910B0A79
:1018A00060910C0A70910D0A83E59DE00E943A3028
:1018B00083E59DE06FE273E00E948A2E40910E0A5C
:1018C00050910F0A6091100A7091110A83E59DE012
:1018D0000E943A3083E59DE069E373E00E948A2E1E
:1018E0004091120A5091130A6091140A7091150ADE
:1018F00083E59DE00E943A3083E59DE00E94922EB0
:1019000066960FB6F894DEBF0FBECDBFCF91DF91C4
:101910001F910F91FF90EF90DF90CF90BF90AF900D
:101920009F908F907F906F905F904F903F902F90FF
:1019300008952F923F924F925F926F927F928F9273
:101940009F92AF92BF92CF92DF92EF92FF920F934E
:101950001F93DF93CF9300D000D000D0CDB7DEB778
:101960009A8389831B012A013C832B838091A507DD
:10197000813061F489819A810E94400A89819A812B
:10198000B101A2012B813C810E94540329813A813B
:101990001216130624F488E161E00E943C2D121413
:1019A000130424F48BE161E00E943C2D141415040F
:1019B0000CF069C58EE161E00E943C2D64C5809108
:1019C000A507813009F002C180911A0890911B0887
:1019D0000196A981BA818A1B9B0B9E838D8380917E
:1019E0001E0A90911F0AED81FE81E817F9070CF09D
:1019F00040C0E090EE09F090EF090091F0091091DD
:101A0000F10960E070E080E89FE32091FB063091EF
:101A1000FC064091FD065091FE060E94D6333B0124
:101A20004C01C801B70120E030E040EA51E40E94D7
:101A300025355B016C01C801B70120E030E040EAC8
:101A400051EC0E9425352091FA093091FB09409113
:101A5000FC095091FD090E946E337B018C012D81A0
:101A60003E81220F331F225B374FD9016D917C914C
:101A700044C0E981FA81E817F9070CF05BC0E090F7
:101A8000EE09F090EF090091F0091091F10960E082
:101A900070E080E89FE32091FB063091FC064091C6
:101AA000FD065091FE060E94D6333B014C01C80151
:101AB000B70120E030E040EA51E40E9425355B01A7
:101AC0006C01C801B70120E030E040EA51EC0E940F
:101AD00025352091FA093091FB094091FC0950917C
:101AE000FD090E946E337B018C01E981FA81EE0FC2
:101AF000FF1FE25BF74F60817181882777FD80953A
:101B0000982F0E94713420E030E44CE156E40E94AA
:101B1000D6339B01AC01C801B7010E9425359B015A
:101B2000AC01C601B5010E946E339B01AC01C4013A
:101B3000B30116C060E070E080E89FE32091FB06EF
:101B40003091FC064091FD065091FE060E94D6336E
:101B50002091FA093091FB094091FC095091FD094F
:101B60000E94D63360932608709327088093280834
:101B70009093290860912608709127088091280881
:101B80009091290820EC31EE44E65CE40E94253572
:101B9000609326087093270880932808909329085B
:101BA0008091E107813091F483E59DE066EE72E07B
:101BB0000E948A2E4091260850912708609128089B
:101BC0007091290883E59DE00E943A306091F20708
:101BD0007091F3078091F4079091F5072091E20747
:101BE0003091E3074091E4075091E5070E942135C9
:101BF00018160CF050C083E00E94C72D892B51F4B9
:101C00008091E107813009F099C083E59DE063E4AC
:101C100073E04FC00E94582C20913608309137084D
:101C20004091380850913908621B730B840B950B57
:101C30000E946F342091260830912708409128088F
:101C4000509129080E94213588230CF479C087E13E
:101C500060E00E943C2D86E161E00E943C2D0E94E4
:101C6000582C609336087093370880933808909307
:101C7000390883E090E00E94AD2C86E160E00E948C
:101C80003C2D29813A81215030403A832983232BEE
:101C900009F056C04EC082E00E94C72D019761F442
:101CA0008091E107813009F049C083E59DE06BE553
:101CB00073E00E94A92E42C00E94582C2091360841
:101CC000309137084091380850913908621B730BE6
:101CD000840B950B0E946F342091260830912708C1
:101CE00040912808509129080E942135882344F109
:101CF00087E161E00E943C2D86E161E00E943C2D7D
:101D00000E94582C609336087093370880933808E7
:101D10009093390883E090E00E94AD2C86E160E06A
:101D20000E943C2D89819A8101979A838983892B0E
:101D300039F488E160E00E943C2D02C01A821982C9
:101D4000121413040CF08FC18091A507813009F0A3
:101D5000F3C0A0911C08B0911D081196A219B309F7
:101D6000BE83AD8380911E0A90911F0AA817B90700
:101D7000CCF5E090F209F090F3090091F40910918C
:101D8000F50960E070E080E89FE32091FF06309164
:101D9000000740910107509102070E94D6333B0192
:101DA0004C01C801B70120E030E040EA51E40E9454
:101DB00025355B016C01C801B70120E030E040EA45
:101DC00051EC0E9425352091FE093091FF09409188
:101DD000000A5091010A0E946E337B018C01ED8153
:101DE000FE813BC0281639060CF05AC0E090F2097B
:101DF000F090F3090091F4091091F50960E070E0AA
:101E000080E89FE32091FF06309100074091010791
:101E1000509102070E94D6333B014C01C801B70123
:101E200020E030E040EA51E40E9425355B016C017E
:101E3000C801B70120E030E040EA51EC0E942535AE
:101E40002091FE093091FF094091000A5091010A4A
:101E50000E946E337B018C01F101EE0FFF1FE25BEC
:101E6000F74F60817181882777FD8095982F0E94B8
:101E7000713420E030E44CE156E40E94D6339B01FB
:101E8000AC01C801B7010E9425359B01AC01C60118
:101E9000B5010E946E339B01AC01C401B30116C0B1
:101EA00060E070E080E89FE32091FF06309100073A
:101EB00040910107509102070E94D6332091FE09FC
:101EC0003091FF094091000A5091010A0E94D633D7
:101ED00060932A0870932B0880932C0890932D0808
:101EE00060912A0870912B0880912C0890912D0800
:101EF00020EC31EE44E65CE40E94253560932A082C
:101F000070932B0880932C0890932D088091E10703
:101F1000813091F483E59DE066EE72E00E948A2EA6
:101F200040912A0850912B0860912C0870912D083F
:101F300083E59DE00E943A306091F6077091F707C3
:101F40008091F8079091F9072091E6073091E70713
:101F50004091E8075091E9070E94213518167CF559
:101F600083E10E94C72D892B51F48091E1078130D4
:101F700009F077C083E59DE063E773E02EC00E941F
:101F8000582C20913A0830913B0840913C085091E0
:101F90003D08621B730B840B950B0E946F342091DC
:101FA0002A0830912B0840912C0850912D080E944E
:101FB000213588230CF457C08AE160E02FC082E10C
:101FC0000E94C72D019761F48091E107813009F0EB
:101FD00048C083E59DE06BE873E00E94A92E41C0F4
:101FE0000E94582C20913A0830913B0840913C08BF
:101FF00050913D08621B730B840B950B0E946F344C
:1020000020912A0830912B0840912C0850912D08DE
:102010000E94213588233CF18AE161E00E943C2D39
:1020200089E161E00E943C2D0E94582C60933A089F
:1020300070933B0880933C0890933D0883E090E0C8
:102040000E94AD2C89E160E00E943C2D089421089B
:1020500031082114310439F48BE160E00E943C2DF9
:1020600002C022243324141415040CF0B9C1809149
:10207000A507813009F0FCC020911E0830911F088F
:102080002F5F3F4F241935093E832D8380911E0A0F
:1020900090911F0A281739070CF040C0E090F6090C
:1020A000F090F7090091F8091091F90960E070E0EB
:1020B00080E89FE3209103073091040740910507D2
:1020C000509106070E94D6333B014C01C801B7016D
:1020D00020E030E040EA51E40E9425355B016C01CC
:1020E000C801B70120E030E040EA51EC0E942535FC
:1020F0002091020A3091030A4091040A5091050A86
:102100000E946E337B018C018D819E81880F991F07
:10211000825B974FDC016D917C9141C04816590656
:102120000CF05AC0E090F609F090F7090091F80918
:102130001091F90960E070E080E89FE320910307C7
:102140003091040740910507509106070E94D6334D
:102150003B014C01C801B70120E030E040EA51E406
:102160000E9425355B016C01C801B70120E030E019
:1021700040EA51EC0E9425352091020A3091030A71
:102180004091040A5091050A0E946E337B018C0134
:10219000F201EE0FFF1FE25BF74F6081718188272C
:1021A00077FD8095982F0E94713420E030E44CE157
:1021B00056E40E94D6339B01AC01C801B7010E94CE
:1021C00025359B01AC01C601B5010E946E339B0110
:1021D000AC01C401B30116C060E070E080E89FE389
:1021E000209103073091040740910507509106079D
:1021F0000E94D6332091020A3091030A4091040ACA
:102200005091050A0E94D63360932E0870932F08D0
:10221000809330089093310860912E0870912F08B8
:10222000809130089091310820EC31EE44E65CE476
:102230000E94253560932E0870932F0880933008F4
:10224000909331088091E107813091F483E59DE01E
:1022500066EE72E00E948A2E40912E0850912F085F
:10226000609130087091310883E59DE00E943A301A
:102270006091FA077091FB078091FC079091FD0730
:102280002091EA073091EB074091EC075091ED0760
:102290000E9421351816BCF585E10E94C72D892BB7
:1022A00051F48091E107813009F098C083E59DE009
:1022B00063EA73E036C00E94582C20913E083091AA
:1022C0003F084091400850914108621B730B840BFA
:1022D000950B0E946F3420912E0830912F08409169
:1022E0003008509131080E94213588230CF478C0C1
:1022F000E091DA07F091DB07EE0FFF1FED54F84F86
:10230000808160E038C084E10E94C72D019761F4AC
:102310008091E107813009F061C083E59DE06BEBBE
:1023200073E00E94A92E5AC00E94582C20913E08AA
:1023300030913F084091400850914108621B730B57
:10234000840B950B0E946F3420912E0830912F083A
:1023500040913008509131080E94213588230CF4B7
:102360003FC0E091DA07F091DB07EE0FFF1FED545D
:10237000F84F808161E00E943C2DE091DA07F091F6
:10238000DB07EE0FFF1FE554F84F808161E00E94EC
:102390003C2D0E94582C60933E0870933F08809318
:1023A00040089093410883E090E00E94AD2CE091BA
:1023B000DA07F091DB07EE0FFF1FE554F84F80813D
:1023C00060E00E943C2D08944108510841145104DA
:1023D00039F48EE160E00E943C2D02C04424552473
:1023E000EB81FC811E161F060CF04DC08091A107E9
:1023F0009091A2078731910519F50E94582C2091E0
:102400004208309143084091440850914508621BAE
:10241000730B840B950B0E946F342091320830911E
:10242000330840913408509135080E9421358823A3
:1024300054F12B813C81215030403C832B8323C0BD
:10244000489709F50E94582C209142083091430882
:102450004091440850914508621B730B840B950B07
:102460000E946F3420913208309133084091340833
:10247000509135080E94213588232CF08B819C8156
:1024800001979C838B83A981BA811A161B060CF4D1
:1024900096CA121413040CF457CC141415040CF43B
:1024A000E6CDEB81FC811E161F060CF499CF8091BE
:1024B000A007813009F0F4C0E090E207F090E30754
:1024C0000091E4071091E5076091F2077091F3071E
:1024D0008091F4079091F507A80197010E9421359A
:1024E00020911A0830911B081816C4F4B9018827E6
:1024F00077FD8095982F0E9471342091FB063091D2
:10250000FC064091FD065091FE060E94D6339B01C9
:10251000AC01C801B7010E946E3317C0B90188270A
:1025200077FD8095982F0E9471342091FB063091A1
:10253000FC064091FD065091FE060E94D6339B0199
:10254000AC01C801B7010E946D336093E20770933C
:10255000E3078093E4079093E507E090E607F090A7
:10256000E7070091E8071091E9076091F60770917D
:10257000F7078091F8079091F907A80197010E9449
:10258000213520911C0830911D081816C4F4B9019A
:10259000882777FD8095982F0E9471342091FF063F
:1025A0003091000740910107509102070E94D633F5
:1025B0009B01AC01C801B7010E946E3317C0B9017D
:1025C000882777FD8095982F0E9471342091FF060F
:1025D0003091000740910107509102070E94D633C5
:1025E0009B01AC01C801B7010E946D336093E607FF
:1025F0007093E7078093E8079093E907E090EA0774
:10260000F090EB070091EC071091ED076091FA074D
:102610007091FB078091FC079091FD07A80197013D
:102620000E94213520911E0830911F081816C4F40D
:10263000B901882777FD8095982F0E9471342091E9
:1026400003073091040740910507509106070E9447
:10265000D6339B01AC01C801B7010E946E3317C08D
:10266000B901882777FD8095982F0E9471342091B9
:1026700003073091040740910507509106070E9417
:10268000D6339B01AC01C801B7010E946D33609342
:10269000EA077093EB078093EC079093ED0730C047
:1026A0008091F2079091F307A091F407B091F5079C
:1026B0008093E2079093E307A093E407B093E507C4
:1026C0008091F6079091F707A091F807B091F9076C
:1026D0008093E6079093E707A093E807B093E90794
:1026E0008091FA079091FB07A091FC07B091FD073C
:1026F0008093EA079093EB07A093EC07B093ED0764
:1027000010921B0810921A0810921D0810921C08B3
:1027100010921F0810921E08109221081092200893
:102720008091E107813009F08EC083E59DE063ED83
:1027300073E00E94A92E83E59DE06CEF73E00E9498
:102740008A2E4091E2075091E3076091E40770916F
:10275000E50783E59DE00E94363083E59DE064E077
:1027600074E00E948A2E4091F2075091F307609125
:10277000F4077091F50783E59DE00E94363083E50C
:102780009DE06EE074E00E948A2E60911A087091BC
:102790001B0883E59DE00E94772F83E59DE069E1BA
:1027A00074E00E948A2E409126085091270860917B
:1027B00028087091290883E59DE00E943A3083E55E
:1027C0009DE062E274E00E948A2E4091E6075091FB
:1027D000E7076091E8077091E90783E59DE00E94B3
:1027E000363083E59DE06AE274E00E948A2E4091D3
:1027F000F6075091F7076091F8077091F90783E5A4
:102800009DE00E94363083E59DE064E374E00E9421
:102810008A2E60911C0870911D0883E59DE00E943E
:10282000772F83E59DE06FE374E00E948A2E40914C
:102830002A0850912B0860912C0870912D0883E58F
:102840009DE00E943A3026960FB6F894DEBF0FBE88
:10285000CDBFCF91DF911F910F91FF90EF90DF904F
:10286000CF90BF90AF909F908F907F906F905F9030
:102870004F903F902F9008952F923F924F925F92EA
:102880006F927F928F929F92AF92BF92CF92DF9280
:10289000EF92FF920F931F93DF93CF93CDB7DEB7E5
:1028A00068970FB6F894DEBF0FBECDBF9E8B8D8BA1
:1028B000C090E207D090E307E090E407F090E507CE
:1028C000C092CE07D092CF07E092D007F092D10706
:1028D0004090E6075090E7076090E8077090E9079E
:1028E0004092D2075092D3076092D4077092D507D6
:1028F0008091EA079091EB07A091EC07B091ED076A
:10290000898B9A8BAB8BBC8B8093D6079093D70720
:10291000A093D807B093D9070091DA071091DB078D
:10292000AD89BE8994E0AA0FBB1F9A95E1F7A15A21
:10293000B84FF80184E0EE0FFF1F8A95E1F7E15AE6
:10294000F84F6D917D918D919C91208131814281D3
:1029500053810E946D339B01AC01C701B6010E94F7
:102960006E334B015C016093F2077093F307809321
:10297000F4079093F507ED89FE89B4E0EE0FFF1F91
:10298000BA95E1F7ED59F84FA4E0000F111FAA9591
:10299000E1F7D801AD59B84F60817181828193818F
:1029A0002D913D914D915C910E946D339B01AC0145
:1029B000C301B2010E946E336D877E878F87988B2B
:1029C0006093F6077093F7078093F8079093F907E1
:1029D000ED89FE8974E0EE0FFF1F7A95E1F7E55A65
:1029E000F84F055A184F6485758586859785D801F7
:1029F0001C962D913D914D915C911F970E946D33D6
:102A00009B01AC0169897A898B899C890E946E330C
:102A100069877A878B879C876093FA077093FB0797
:102A20008093FC079093FD07C501B401A7019601AF
:102A30000E946D337B018C0120E030E040E050E0EB
:102A40000E942135181624F017FB109517F91095E0
:102A50008091FB069091FC06A091FD06B091FE06C8
:102A60008D839E83AF83B887C801B7012D813E81D6
:102A70004F8158850E9425350E943E341B0170937A
:102A80001B0860931A086D857E858F859889A30140
:102A900092010E946D337B018C0120E030E040E028
:102AA00050E00E942135181624F017FB109517F9F5
:102AB00010958091FF0690910007A0910107B091B9
:102AC000020789839A83AB83BC83C801B70129813C
:102AD0003A814B815C810E9425350E943E344B0136
:102AE00070931D0860931C0869857A858B859C8589
:102AF00029893A894B895C890E946D337B018C015D
:102B000020E030E040E050E00E942135181624F02B
:102B100017FB109517F91095409003075090040784
:102B20006090050770900607C801B701A3019201E4
:102B30000E9425350E943E34788F6F8B70931F085A
:102B400060931E081092210810922008A090A607FA
:102B5000B090A707C090A807D090A907A09222081C
:102B6000B0922308C0922408D09225082814390472
:102B7000A4F02616370674F0B101882777FD8095FA
:102B8000982F0E9471347B018C016D817E818F8131
:102B9000988523C0821493049CF0EF89F88D8E16DB
:102BA0009F0674F0B401882777FD8095982F0E94C6
:102BB00071347B018C0169817A818B819C810DC08C
:102BC0002F89388DB901882777FD8095982F0E942D
:102BD00071347B018C01C301B201A60195010E94F1
:102BE000253520EC31EE44E65CE40E94D6339B01AF
:102BF000AC0160E070E080E89FE30E94D6339B0167
:102C0000AC01C801B7010E94253560934608709356
:102C100047088093480890934908E0904608F09050
:102C200047080091480810914908B101882777FDAD
:102C30008095982F0E9471349B01AC01C801B701A7
:102C40000E94D63360932608709327088093280843
:102C500090932908B401882777FD8095982F0E94CA
:102C600071349B01AC01C801B7010E94D633609357
:102C70002A0870932B0880932C0890932D08AF8915
:102C8000B88DBD01882777FD8095982F0E947134FB
:102C90009B01AC01C801B7010E94D63360932E0896
:102CA00070932F088093300890933108C101B401CC
:102CB0004F89588D20E030E00E94990C8091CE071A
:102CC0009091CF07A091D007B091D1078093E207F0
:102CD0009093E307A093E407B093E5078091D207B0
:102CE0009091D307A091D407B091D5078093E607C0
:102CF0009093E707A093E807B093E907ED89FE8971
:102D0000F093DB07E093DA0768960FB6F894DEBF1E
:102D10000FBECDBFCF91DF911F910F91FF90EF902C
:102D2000DF90CF90BF90AF909F908F907F906F90EB
:102D30005F904F903F902F9008952F923F924F9227
:102D40005F926F927F928F929F92AF92BF92CF923B
:102D5000DF92EF92FF920F931F93CF93DF938091B7
:102D6000DA079091DB079093DD078093DC07C0E0E2
:102D7000D0E00F2EF0E02F2EF0E03F2EF0EF4F2EA0
:102D8000F1E45F2EF02D8091DC079091DD07C817EC
:102D9000D90709F4BEC0D093DB07C093DA0780914E
:102DA000E2079091E307A091E407B091E5078093D3
:102DB000F2079093F307A093F407B093F50780917F
:102DC000E6079091E707A091E807B091E9078093A3
:102DD000F6079093F707A093F807B093F907E090F0
:102DE000EA07F090EB070091EC071091ED07C8019E
:102DF000B70120919B0730919C0740919D0750910E
:102E00009E070E946E336093FA077093FB078093CE
:102E1000FC079093FD0710921B0810921A0810925D
:102E20001D0810921C08A80197010E946D337B01B8
:102E30008C0120E030E040E050E00E94213518167F
:102E400024F017FB109517F91095A0900307B09088
:102E50000407C0900507D0900607C801B701A60176
:102E600095010E9425350E943E347B018C017093B0
:102E70001F0860931E0810922108109220082092CB
:102E80002208309223084092240850922508B70166
:102E9000882777FD8095982F0E9471343B014C0163
:102EA000C601B50120E030E040EF51E40E94253535
:102EB00020EC31EE44E65CE40E94D6339B01AC0189
:102EC00060E070E080E89FE30E94D6339B01AC0194
:102ED000C401B3010E9425356093460870934708EA
:102EE0008093480890934908A40193010E94D63327
:102EF00060932E0870932F088093300890933108C8
:102F000080E090E060E070E0A70120E030E00E9407
:102F1000990C2196C230D10509F035CF8091DC079C
:102F20009091DD079093DB078093DA07DF91CF91D3
:102F30001F910F91FF90EF90DF90CF90BF90AF90D7
:102F40009F908F907F906F905F904F903F902F90C9
:102F500008954F925F926F927F928F929F92AF925D
:102F6000BF92CF92DF92EF92FF920F931F93CF9376
:102F7000DF938091DA079091DB079093DD078093D0
:102F8000DC0727E6422E27E0522EC0E0D0E0D093A7
:102F9000DB07C093DA078091E2079091E307A091E5
:102FA000E407B091E5078093F2079093F307A093AD
:102FB000F407B093F5078091E6079091E707A09199
:102FC000E807B091E9078093F6079093F707A0937D
:102FD000F807B093F90760916707709168078091CF
:102FE000690790916A07D2012D913D914D915C91B5
:102FF0000E946D336093FA077093FB078093FC0780
:103000009093FD0710921B0810921A0810921D0849
:1030100010921C082091EA073091EB074091EC07D1
:103020005091ED070E946D337B018C0120E030E070
:1030300040E050E00E942135181624F017FB10954F
:1030400017F91095A0900307B0900407C0900507EA
:10305000D0900607C801B701A60195010E94253549
:103060000E943E347B018C0170931F0860931E0800
:10307000109221081092200880E090E0A0EFB1E4C7
:103080008093220890932308A0932408B0932508E6
:10309000B701882777FD8095982F0E9471343B01F6
:1030A0004C01C601B50120E030E040EF51E40E9440
:1030B000253520EC31EE44E65CE40E94D6339B01DA
:1030C000AC0160E070E080E89FE30E94D6339B0192
:1030D000AC01C401B3010E9425356093460870938A
:1030E00047088093480890934908A40193010E94DF
:1030F000D63360932E0870932F08809330089093F6
:10310000310880E090E060E070E0A70120E030E06E
:103110000E94990C2196A0E1B0E04A0E5B1EC230DD
:10312000D10509F034CF8091DC079091DD079093B1
:10313000DB078093DA07DF91CF911F910F91FF900A
:10314000EF90DF90CF90BF90AF909F908F907F9047
:103150006F905F904F9008952F923F924F925F92A1
:103160006F927F928F929F92AF92BF92CF92DF9297
:10317000EF92FF920F931F93CF93DF938091DA0723
:103180009091DB079093DD078093DC07C0E0D0E0EF
:103190000F2EF0E02F2EF0E03F2EF0EF4F2EF1E457
:1031A0005F2EF02DD093DB07C093DA078091E20702
:1031B0009091E307A091E407B091E5078093F207AF
:1031C0009093F307A093F407B093F5078091E60777
:1031D0009091E707A091E807B091E9078093F6077F
:1031E0009093F707A093F807B093F9078DE59EE257
:1031F000A7E1B1EC8093FA079093FB07A093FC073B
:10320000B093FD0710921B0810921A0810921D0827
:1032100010921C08BC01CD012091EA073091EB0708
:103220004091EC075091ED070E946D337B018C01BA
:1032300020E030E040E050E00E942135181624F0F4
:1032400017FB109517F91095A0900307B09004078D
:10325000C0900507D0900607C801B701A6019501E7
:103260000E9425350E943E347B018C0170931F081B
:1032700060931E08109221081092200820922208C4
:10328000309223084092240850922508B7018827DD
:1032900077FD8095982F0E9471343B014C01C60147
:1032A000B50120E030E040EF51E40E94253520ECEC
:1032B00031EE44E65CE40E94D6339B01AC0160E051
:1032C00070E080E89FE30E94D6339B01AC01C4010B
:1032D000B3010E9425356093460870934708809398
:1032E000480890934908A40193010E94D633609343
:1032F0002E0870932F08809330089093310880E057
:1033000090E060E070E0A70120E030E00E94990CBE
:103310002196C230D10509F045CF8091DC0790910C
:10332000DD079093DB078093DA0780E090E0A0E070
:10333000B0E08093EA079093EB07A093EC07B0937B
:10334000ED07DF91CF911F910F91FF90EF90DF90EC
:10335000CF90BF90AF909F908F907F906F905F9035
:103360004F903F902F9008954F925F926F927F926F
:103370008F929F92AF92BF92CF92DF92EF92FF9285
:103380000F931F93CF93DF9380EF97EFABE7B1ECF1
:103390008093F2079093F307A093F407B093F50797
:1033A0008093F6079093F707A093F807B093F90777
:1033B0008091EA079091EB07A091EC07B091ED079F
:1033C0008093FA079093FB07A093FC07B093FD0747
:1033D00060EF77EF8BE791EC2091E2073091E30704
:1033E0004091E4075091E5070E946D337B018C0109
:1033F00020E030E040E050E00E942135181624F033
:1034000017FB109517F910956090FB067090FC065D
:103410008090FD069090FE06C801B701A4019301BB
:103420000E9425350E943E342B0170931B08609347
:103430001A0860EF77EF8BE791EC2091E607309167
:10344000E7074091E8075091E9070E946D337B013F
:103450008C0120E030E040E050E00E942135181659
:1034600024F017FB109517F91095A090FF06B09067
:103470000007C0900107D0900207C801B701A6015C
:1034800095010E9425350E943E34EB0170931D0882
:1034900060931C0810921F0810921E0810922108B9
:1034A0001092200880E090E0A0EFB1E48093220821
:1034B00090932308A0932408B09325084C165D062A
:1034C00064F0B201882777FD8095982F0E947134AF
:1034D0007B018C01C401B3010BC0BE01882777FDBD
:1034E0008095982F0E9471347B018C01C601B50133
:1034F00020E030E040EF51E40E94253520EC31EE31
:1035000044E65CE40E94D6339B01AC0160E070E0CD
:1035100080E89FE30E94D6339B01AC01C801B7014C
:103520000E942535609346087093470880934808A9
:1035300090934908E0904608F090470800914808A9
:1035400010914908B201882777FD8095982F0E9435
:1035500071349B01AC01C801B7010E94D63360935E
:103560002608709327088093280890932908BE01A5
:10357000882777FD8095982F0E9471349B01AC01BC
:10358000C801B7010E94D63360932A0870932B08B4
:1035900080932C0890932D08C201BE0140E050E0BA
:1035A00020E030E00E94990C80E090E0A0E0B0E0E4
:1035B0008093E2079093E307A093E407B093E507B5
:1035C0008093E6079093E707A093E807B093E90795
:1035D000DF91CF911F910F91FF90EF90DF90CF90EF
:1035E000BF90AF909F908F907F906F905F904F9023
:1035F00008950E94B4190E94AC180E94A9170E9455
:103600009D160895EF92FF920F931F9381E798E321
:10361000ACE6B2E48093220890932308A093240898
:10362000B093250880E29AE066E470E00E94C5024B
:103630009093240B8093230B009709F443C00196C9
:1036400060E070E00E944D019B01AC016093220894
:103650007093230880932408909325088091A307F2
:103660009091A407459781F4CA01B90123E333E39C
:103670004BEC51E40E94D6336093220870932308E8
:103680008093240890932508E090A607F090A70760
:103690000091A8071091A907609122087091230852
:1036A0008091240890912508A80197010E94213556
:1036B000181644F4E0922208F0922308009324089C
:1036C000109325081F910F91FF90EF900895CF93CD
:1036D000DF93EC018091E2079091E307A091E4076A
:1036E000B091E5078093F2079093F307A093F40756
:1036F000B093F5078091E6079091E707A091E8075E
:10370000B091E9078093F6079093F707A093F80725
:10371000B093F9078091EA079091EB07A091EC072D
:10372000B091ED078093FA079093FB07A093FC07F5
:10373000B093FD078091EE079091EF07A091F007FD
:10374000B091F1078093FE079093FF07A0930008C4
:10375000B093010880E29AE068E570E00E94C5023B
:103760009093240B8093230B009729F1019660E03E
:1037700070E00E944D019B01AC016093F2077093D1
:10378000F3078093F4079093F5078091A307909136
:10379000A407459781F4CA01B90123E333E34BEC55
:1037A00051E40E94D6336093F2077093F30780933D
:1037B000F4079093F507CE0169E570E00E94C50219
:1037C0009093240B8093230B009729F1019660E0DE
:1037D00070E00E944D019B01AC016093F60770936D
:1037E000F7078093F8079093F9078091A3079091CA
:1037F000A407459781F4CA01B90123E333E34BECF5
:1038000051E40E94D6336093F6077093F7078093D4
:10381000F8079093F90780E29AE065E470E00E946F
:10382000C5029093240B8093230B009729F10196F6
:1038300060E070E00E944D019B01AC016093FE07C7
:103840007093FF0780930008909301088091A3076D
:103850009091A407459781F4CA01B90123E333E3AA
:103860004BEC51E40E94D6336093FE077093FF0740
:103870008093000890930108CE016AE570E00E94F1
:10388000C5029093240B8093230B009729F1019696
:1038900060E070E00E944D019B01AC016093FA076B
:1038A0007093FB078093FC079093FD078091A3071B
:1038B0009091A407459781F4CA01B90123E333E34A
:1038C0004BEC51E40E94D6336093FA077093FB07E8
:1038D0008093FC079093FD078091DE07813009F00B
:1038E00054C06091F2077091F3078091F4079091B2
:1038F000F50720E030E040E050E00E94D23388231A
:1039000064F480E090E0A0E0B0E08093F207909350
:10391000F307A093F407B093F5076091F607709151
:10392000F7078091F8079091F90720E030E040E038
:1039300050E00E94D233882364F480E090E0A0E05D
:10394000B0E08093F6079093F707A093F807B09341
:10395000F9076091FA077091FB078091FC0790913D
:10396000FD0720E030E040E050E00E94D2338823A1
:1039700064F480E090E0A0E0B0E08093FA079093D8
:10398000FB07A093FC07B093FD0780919F07813050
:1039900009F054C06091F2077091F3078091F40729
:1039A0009091F50720EF37EF4BEF50E40E9421355F
:1039B000181664F480EF97EFABEFB0E48093F20752
:1039C0009093F307A093F407B093F5076091F6077F
:1039D0007091F7078091F8079091F90720EF37EF82
:1039E0004BEF50E40E942135181664F480EF97EFF6
:1039F000ABEFB0E48093F6079093F707A093F80736
:103A0000B093F9076091FA077091FB078091FC076A
:103A10009091FD072DE53EE247E950E40E942135F3
:103A2000181664F48DE59EE2A7E9B0E48093FA07E6
:103A30009093FB07A093FC07B093FD07DF91CF9114
:103A400008956F927F928F929F92AF92BF92CF9282
:103A5000DF92EF92FF920F931F93CF93DF93EC01CE
:103A6000FB01E80FF91F108283E59DE0BE010E9473
:103A7000A92E8881873409F0F2C6CE01019660E054
:103A800070E00E944D010E943E347093260B6093BB
:103A9000250B6E31710509F48FC46F317105BCF4CB
:103AA0006430710509F457C4653071053CF4672B27
:103AB00059F16130710509F0D2C6F1C06431710568
:103AC00009F475C46531710509F0C9C670C4613265
:103AD000710509F4FCC4623271054CF46F31710553
:103AE00009F49BC46032710509F0B9C6BFC46B35D7
:103AF000710509F47EC66C35710509F47DC66A3519
:103B0000710509F0ACC671C68091E107813031F4CE
:103B100083E59DE068E474E00E94A92ECE010E9436
:103B2000671B6091F2077091F3078091F407909101
:103B3000F507FDC460911E0870911F08882777FD66
:103B40008095982F0E9471347B018C01C601B501CC
:103B50002091030730910407409105075091060713
:103B60000E94253520EC31EE44E65CE40E94D63319
:103B70009B01AC0160E070E080E89FE30E94D633D7
:103B80009B01AC01C801B7010E942535609346082E
:103B9000709347088093480890934908A0901A08AA
:103BA000B0901B08B501882777FD8095982F0E945B
:103BB00071349B01AC016091460870914708809177
:103BC0004808909149080E94D63360932608709364
:103BD00027088093280890932908C0901C08D0904B
:103BE0001D08B601882777FD8095982F0E947134B3
:103BF0009B01AC016091460870914708809148088C
:103C0000909149080E94D63360932A0870932B083C
:103C100080932C0890932D08E0901E08F0901F08C8
:103C2000B701882777FD8095982F0E9471349B01FA
:103C3000AC016091460870914708809148089091C6
:103C400049080E94D63360932E0870932F08809302
:103C50003008909331080091200810912108B80194
:103C6000882777FD8095982F0E9471349B01AC01C5
:103C700060914608709147088091480890914908E2
:103C80000E94D633609332087093330880933408CF
:103C900090933508C501B601A701980159C38091D9
:103CA000E107813031F483E59DE06DE574E00E9429
:103CB000A92ECE010E94671BCE010E94021B6091BB
:103CC000F2077091F3078091F4079091F507209126
:103CD000E2073091E3074091E4075091E5070E9425
:103CE0006D337B018C0120E030E040E050E00E9429
:103CF0002135181624F017FB109517F91095C801F7
:103D0000B7012091FB063091FC064091FD065091D1
:103D1000FE060E9425350E943E3470931B08609376
:103D20001A086091F6077091F7078091F807909153
:103D3000F9072091E6073091E7074091E807509195
:103D4000E9070E946D337B018C0120E030E040E008
:103D500050E00E942135181624F017FB109517F932
:103D60001095C801B7012091FF06309100074091DE
:103D70000107509102070E9425350E943E3470933E
:103D80001D0860931C086091FA077091FB078091F1
:103D9000FC079091FD072091EA073091EB074091D5
:103DA000EC075091ED070E946D337B018C0120E000
:103DB00030E040E050E00E942135181624F017FB57
:103DC000109517F91095C801B7012091030730919C
:103DD000040740910507509106070E9425350E946F
:103DE0003E3470931F0860931E088091E007813075
:103DF00009F061C06091F2077091F3078091F407B8
:103E00009091F5072091E2073091E3074091E40794
:103E10005091E5070E946D337B018C016091F6079C
:103E20007091F7078091F8079091F9072091E607C4
:103E30003091E7074091E8075091E9070E946D3300
:103E40005B016C016091FA077091FB078091FC07A0
:103E50009091FD072091EA073091EB074091EC0724
:103E60005091ED070E946D333B014C01C801B70131
:103E7000A80197010E9425357B018C01C601B5017F
:103E8000A60195010E9425359B01AC01C801B7012F
:103E90000E946E337B018C01C401B301A401930124
:103EA0000E9425359B01AC01C801B7010E946E3309
:103EB0000E948C3522C06091FE077091FF078091AF
:103EC0000008909101082091EE073091EF07409192
:103ED000F0075091F1070E946D337B018C0120E0C7
:103EE00030E040E050E00E942135181624F017FB26
:103EF000109517F91095C801B70120910707309167
:103F000008074091090750910A070E9425350E9431
:103F10003E34709321086093200820911A08309154
:103F20001B0840911C0850911D0824173507E4F028
:103F300080911E0890911F082817390794F0B90145
:103F4000882777FD8095982F0E9471347B018C0122
:103F50006091FB067091FC068091FD069091FE0633
:103F600030C042175307CCF080911E0890911F0873
:103F70004817590794F0BA01882777FD8095982F44
:103F80000E9471347B018C016091FF0670910007E3
:103F9000809101079091020714C060911E087091F2
:103FA0001F08882777FD8095982F0E9471347B0128
:103FB0008C0160910307709104078091050790912F
:103FC000060720912208309123084091240850913F
:103FD00025080E94253520EC31EE44E65CE40E9481
:103FE000D6339B01AC0160E070E080E89FE30E9463
:103FF000D6339B01AC01C801B7010E9425356093FF
:104000004608709347088093480890934908609148
:104010001A0870911B08882777FD8095982F0E94B9
:1040200071349B01AC016091460870914708809102
:104030004808909149080E94D633609326087093EF
:104040002708809328089093290860911C08709194
:104050001D08882777FD8095982F0E9471349B0159
:10406000AC01609146087091470880914808909192
:1040700049080E94D63360932A0870932B088093D6
:104080002C0890932D0860911E0870911F088827B6
:1040900077FD8095982F0E9471349B01AC0160914F
:1040A00046087091470880914808909149080E94FD
:1040B000D63360932E0870932F0880933008909326
:1040C00031086091200870912108882777FD80953C
:1040D000982F0E9471349B01AC0160914608709149
:1040E000470880914808909149080E94D633609310
:1040F0003208709333088093340890933508809188
:10410000E107813009F014C183E59DE00E94922E01
:1041100083E59DE066E774E00E948A2E4091FB06ED
:104120005091FC066091FD067091FE0683E59DE0CE
:104130000E94363083E59DE06DE774E00E948A2E90
:104140004091FF06509100076091010770910207AE
:1041500083E59DE00E94363083E59DE065E874E0EC
:104160000E948A2E40910307509104076091050731
:104170007091060783E59DE00E94363083E59DE05F
:104180006DE874E00E948A2E40910707509108075D
:104190006091090770910A0783E59DE00E943A301B
:1041A00083E59DE065E974E00E948A2E409146080F
:1041B00050914708609148087091490883E59DE057
:1041C0000E943A3083E59DE065EA74E00E948A2E01
:1041D0004091F2075091F3076091F4077091F50751
:1041E00083E59DE00E94363083E59DE06EE074E05B
:1041F0000E948A2E60911A0870911B0883E59DE049
:104200000E94772F83E59DE069E174E00E948A2E89
:10421000409126085091270860912808709129083C
:1042200083E59DE00E943A3083E59DE06EEA74E00C
:104230000E948A2E4091F6075091F7076091F80787
:104240007091F90783E59DE00E94363083E59DE09B
:1042500064E374E00E948A2E60911C0870911D082E
:1042600083E59DE00E94772F83E59DE06FE374E096
:104270000E948A2E40912A0850912B0860912C08A8
:1042800070912D0883E59DE00E943A3083E59DE022
:1042900067EB74E00E948A2E4091FA075091FB0769
:1042A0006091FC077091FD0783E59DE00E94363028
:1042B00083E59DE060EC74E00E948A2E60911E0808
:1042C00070911F0883E59DE00E94772F83E59DE0B4
:1042D0006BEC74E00E948A2E40912E0850912F08BA
:1042E000609130087091310883E59DE00E943A307A
:1042F00083E59DE064ED74E00E948A2E60912008C1
:104300007091210883E59DE00E94772F83E59DE071
:104310006EED74E00E948A2E40913208509133086D
:10432000609134087091350883E59DE00E943A3031
:1043300060911C0870911D0840911E0850911F0843
:10434000209120083091210880911A0890911B0833
:104350000E94990C84C280E29AE060E570E00E94BD
:10436000C5029093240B8093230B009709F477C226
:10437000019660E070E00E944D017B018C0160932A
:104380004A0870934B0880934C0890934D0820E0A6
:1043900030E040E050E00E94213518160CF05FC27A
:1043A000C801B7010E9443340E94832C58C2709305
:1043B000A4076093A30753C28091E2079091E3079B
:1043C000A091E407B091E507809302089093030859
:1043D000A0930408B09305088091E6079091E70741
:1043E000A091E807B091E907809306089093070829
:1043F000A0930808B09309088091EA079091EB0711
:10440000A091EC07B091ED0780930A0890930B08F8
:10441000A0930C08B0930D0822C26091020870911D
:10442000030880910408909105086093F207709347
:10443000F3078093F4079093F507209106083091D5
:10444000070840910808509109082093F607309317
:10445000F7074093F8075093F90720910A08309125
:104460000B0840910C0850910D0859C08091E2074B
:104470009091E307A091E407B091E50780930E08BF
:1044800090930F08A0931008B09311088091E6074D
:104490009091E707A091E807B091E907809312088F
:1044A00090931308A0931408B09315088091EA071D
:1044B0009091EB07A091EC07B091ED07809316085F
:1044C00090931708A0931808B0931908C8C1609179
:1044D0000E0870910F088091100890911108609358
:1044E000F2077093F3078093F4079093F5072091F8
:1044F0001208309113084091140850911508209328
:10450000F6073093F7074093F8075093F907209187
:1045100016083091170840911808509119082093F7
:10452000FA073093FB074093FC075093FD07209157
:10453000E2073091E3074091E4075091E5070E94BC
:104540006D337B018C0120E030E040E050E00E94C0
:104550002135181624F017FB109517F91095C8018E
:10456000B7012091FB063091FC064091FD06509169
:10457000FE060E9425350E943E3470931B0860930E
:104580001A086091F6077091F7078091F8079091EB
:10459000F9072091E6073091E7074091E80750912D
:1045A000E9070E946D337B018C0120E030E040E0A0
:1045B00050E00E942135181624F017FB109517F9CA
:1045C0001095C801B7012091FF0630910007409176
:1045D0000107509102070E9425350E943E347093D6
:1045E0001D0860931C086091FA077091FB07809189
:1045F000FC079091FD072091EA073091EB0740916D
:10460000EC075091ED070E946D337B018C0120E097
:1046100030E040E050E00E942135181624F017FBEE
:10462000109517F91095C801B70120910307309133
:10463000040740910507509106070E9425350E9406
:104640003E3470931F0860931E088091E00781300C
:1046500009F071C06091F2077091F3078091F4073F
:104660009091F5072091E2073091E3074091E4072C
:104670005091E5070E946D337B018C016091F60734
:104680007091F7078091F8079091F9072091E6075C
:104690003091E7074091E8075091E9070E946D3398
:1046A0005B016C016091FA077091FB078091FC0738
:1046B0009091FD072091EA073091EB074091EC07BC
:1046C0005091ED070E946D333B014C01C801B701C9
:1046D000A80197010E9425357B018C01C601B50117
:1046E000A60195010E9425359B01AC01C801B701C7
:1046F0000E946E337B018C01C401B301A4019301BC
:104700000E9425359B01AC01C801B7010E946E33A0
:104710000E948C35209107073091080740910907C6
:1047200050910A070E9425350E943E34709321085B
:104730006093200804C01092210810922008A090D5
:10474000A607B090A707C090A807D090A907A0928D
:104750002208B0922308C0922408D0922508209104
:104760001A0830911B0840911C0850911D0824170D
:104770003507FCF080911E0890911F082817390713
:10478000A4F0B901882777FD8095982F0E94713495
:104790007B018C01C601B5012091FB063091FC061E
:1047A0004091FD065091FE06DBC9421753070CF4F9
:1047B000C1C980911E0890911F08481759070CF431
:1047C000B9C9BA01882777FD8095982F0E94713466
:1047D0007B018C01C601B5012091FF0630910007D5
:1047E0004091010750910207BBC981E08093A00767
:1047F00036C01092A00733C0CE010E94671B809183
:10480000F2079091F307A091F407B091F507809318
:10481000E2079093E307A093E407B093E507809144
:10482000F6079091F707A091F807B091F9078093E8
:10483000E6079093E707A093E807B093E907809114
:10484000FA079091FB07A091FC07B091FD078093B8
:10485000EA079093EB07A093EC07B093ED078881EC
:104860008D3409F04EC3CE01019660E070E00E94E5
:104870004D010E943E347093260B6093250B6C33E0
:10488000710509F4ADC26D337105E4F56C32710543
:1048900009F496C06D327105C4F46330710509F4F2
:1048A00071C06430710544F4672B09F468C062304C
:1048B000710509F0ABC363C06430710509F46CC0C5
:1048C0006530710509F0A2C371C06F32710509F43A
:1048D0009DC0603371054CF46D32710509F47DC0E3
:1048E0006E32710509F092C384C06133710509F419
:1048F000EDC0613371050CF495C06233710509F0A8
:1049000085C30CC16536710509F48CC26636710524
:10491000CCF46734710509F46EC2683471054CF447
:104920006D33710509F460C26634710509F06EC318
:104930005EC26035710509F461C26135710509F027
:1049400065C366C26936710509F492C26A3671059B
:104950004CF46636710509F471C26736710509F0C9
:1049600055C37EC26B36710509F4AAC26B36710558
:104970000CF49AC26C36710509F048C3ABC20E94B0
:104980001B0344C38091E107813009F03FC383E5F5
:104990009DE067EE74E091C28091E107813009F0FB
:1049A00035C383E59DE06FEF74E087C28091E10736
:1049B000813009F02BC383E59DE068E175E07DC29D
:1049C00081E08093DE078091E107813009F01EC30A
:1049D00083E59DE06DE275E070C21092DE07809184
:1049E000E107813009F012C383E59DE060E575E0E1
:1049F00064C281E080939F078091E107813009F0D4
:104A000005C383E59DE064E775E057C210929F07F8
:104A10008091E107813009F0F9C283E59DE067E903
:104A200075E04BC280E29AE066E470E00E94C50245
:104A30009093240B8093230B009709F4E7C201960F
:104A400060E070E00E944D019B01AC016093A607FD
:104A50007093A7078093A8079093A9078091A30755
:104A60009091A407459781F4CA01B90123E333E388
:104A70004BEC51E40E94D6336093A6077093A707CE
:104A80008093A8079093A9076091A6077091A70744
:104A90008091A8079091A90720E030E040E050E025
:104AA0000E9421359091E107181644F4913009F0E5
:104AB000ADC283E59DE06BEB75E01DC0913009F060
:104AC000A5C283E59DE069EE75E0F7C186EF9AE740
:104AD000ADE9B2E48093A6079093A707A093A80737
:104AE000B093A9078091E107813009F08FC283E577
:104AF0009DE062E376E00E948A2E4091A6075091E5
:104B0000A7076091A8077091A90783E59DE00E941F
:104B1000363083E59DE065EE75E0CFC180E29AE036
:104B200068E570E00E94C5029093240B8093230BEC
:104B3000009709F44BC0C090AA07D090AB0701962C
:104B400060E070E00E944D010E943E349B01709332
:104B5000AB076093AA07CB010197029778F0243046
:104B6000310561F02830310549F02031310531F04F
:104B70002032310519F02034310541F5B90188277B
:104B800077FD8095982F0E9471342091FB0630911B
:104B9000FC064091FD065091FE060E9425357B01E2
:104BA0008C01B601882777FD8095982F0E9471347B
:104BB0009B01AC01C801B7010E94D6336093FB068C
:104BC0007093FC068093FD069093FE0680E29AE0C7
:104BD00069E570E00E94C5029093240B8093230B3B
:104BE000009709F44BC0C090AC07D090AD07019678
:104BF00060E070E00E944D010E943E349B01709382
:104C0000AD076093AC07CB010197029778F0243091
:104C1000310561F02830310549F02031310531F09E
:104C20002032310519F02034310541F5B9018827CA
:104C300077FD8095982F0E9471342091FF06309166
:104C4000000740910107509102070E9425357B0122
:104C50008C01B601882777FD8095982F0E947134CA
:104C60009B01AC01C801B7010E94D6336093FF06D7
:104C700070930007809301079093020780E29AE007
:104C80006AE570E00E94C5029093240B8093230B89
:104C9000009709F44BC0C090AE07D090AF070196C3
:104CA00060E070E00E944D010E943E349B017093D1
:104CB000AF076093AE07CB010197029778F02430DD
:104CC000310561F02830310549F02031310531F0EE
:104CD0002032310519F02034310541F5B90188271A
:104CE00077FD8095982F0E947134209103073091B1
:104CF000040740910507509106070E9425357B0166
:104D00008C01B601882777FD8095982F0E94713419
:104D10009B01AC01C801B7010E94D6336093030721
:104D200070930407809305079093060780E29AE04A
:104D300065E470E00E94C5029093240B8093230BDE
:104D4000009709F463C1C090B007D090B1070196F5
:104D500060E070E00E944D010E943E349B01709320
:104D6000B1076093B007CB010197029780F0243020
:104D7000310569F02830310551F02031310539F025
:104D80002032310521F02034310509F03FC1B9014D
:104D9000882777FD8095982F0E947134209107070E
:104DA000309108074091090750910A070E94253564
:104DB0007B018C01B601882777FD8095982F0E9492
:104DC00071349B01AC01C801B7010E94D6336093D6
:104DD0000707709308078093090790930A0716C185
:104DE00081E08093A50712C11092A5070FC181E051
:104DF0008093E1070BC11092E10708C18091E107A0
:104E0000813009F003C183E59DE06AE676E055C094
:104E10008091E107813009F0F9C083E59DE06FE7FB
:104E200076E04BC081E08093E00787E190E09093CB
:104E3000A2078093A1078FE167E10BC081E0809317
:104E4000E00788E190E09093A2078093A1078FE1AB
:104E500068E10E943C2D6091270B84E070E005C062
:104E60001092E00784E060E070E00E945029CEC01C
:104E70008091E107813031F483E59DE065E976E0DA
:104E80000E94A92E83E59DE06DEA76E00E948A2EBD
:104E90008091280B0E9420290E94D002BC0183E54A
:104EA0009DE00E947F2FB2C08091E107813009F020
:104EB000ADC083E59DE060EB76E00E94A92EA6C020
:104EC0008091E107813009F0A1C083E59DE062ECAB
:104ED00076E0F3CF80E29AE063E570E00E94C502DD
:104EE0009093240B8093230B009709F48FC00196B5
:104EF00060E070E00E944D010E9443346093270BF4
:104F000085C0843509F082C0CE01019660E070E072
:104F10000E944D010E943E347093260B6093250B36
:104F20006A307105B1F16B3071058CF46130710537
:104F300029F1623071051CF4672BE9F067C062301B
:104F4000710509F16330710509F060C01FC06E3052
:104F5000710529F16F3071052CF46B30710509F082
:104F600055C01AC06F30710509F44BC0643171052A
:104F700009F04CC049C080E090E002C081E090E0C0
:104F80000E943C1443C082E090E0FACF83E090E0BE
:104F9000F7CF0E94AC183AC00E94A91737C080E230
:104FA0009AE060E570E00E94C5029093240B809324
:104FB000230B009759F1019660E070E00E944D01CB
:104FC0009B01AC0160939B0770939C0780939D07A6
:104FD00090939E078091A3079091A4074597B1F401
:104FE000CA01B90123E333E34BEC51E40E94D63309
:104FF00060939B0770939C0780939D0790939E07F7
:1050000005C00E949D1602C00E94F91A83E59DE02A
:105010000E944232882331F483E59DE060E372E030
:105020000E94A92EDF91CF911F910F91FF90EF90D9
:10503000DF90CF90BF90AF909F908F907F906F90B8
:10504000089583E59DE00E944232882309F443C01D
:1050500083E59DE00E945632282F8093200B8A30F2
:1050600079F46091210B7091220B80E29AE00E940A
:10507000211D1092220B1092210B1092DF07089530
:105080008B3319F481E08093DF078091DF07813053
:1050900011F18091210B9091220BFC01E05EF54F04
:1050A000208301969093220B8093210B8150914095
:1050B00094F08091E107813031F483E59DE065ED66
:1050C00076E00E94A92E1092220B1092210B83E50C
:1050D0009DE00E947E32089580E061E00E943C2DB8
:1050E0000E942128089589E060E00E941C2D89E03B
:1050F00061E00E943C2D88E06BE173E042E050E00B
:105100000E940C2A82E060E00E941C2D82E061E097
:105110000E943C2D82E160E00E941C2D82E161E052
:105120000E943C2D84E160E00E941C2D84E161E03E
:105130000E943C2D83E060E00E941C2D83E061E032
:105140000E943C2D83E160E00E941C2D83E161E020
:105150000E943C2D85E160E00E941C2D85E161E00C
:105160000E943C2D87E161E00E941C2D86E161E0F8
:105170000E941C2D88E161E00E941C2D88E160E006
:105180000E943C2D8AE161E00E941C2D89E161E0D2
:105190000E941C2D8BE161E00E941C2D8BE160E0E0
:1051A0000E943C2D8DE161E00E941C2D8CE161E0AC
:1051B0000E941C2D8EE161E00E941C2D8EE160E0BA
:1051C0000E943C2D80E061E00E941C2D80E060E0A8
:1051D0000E943C2D88E161E00E941C2D88E160E086
:1051E0000E943C2D8BE161E00E941C2D8BE160E070
:1051F0000E943C2D8EE161E00E941C2D8EE160E05A
:105200000E943C2D8FEF61E00E941C2D8FEF60E02B
:105210000E943C2D83E59DE040E05BE460E070E0AF
:105220000E9449311092220B1092210B0E944003E0
:1052300008950E94BB2C0E9473280E946C28FDCF09
:10524000382F3F702091B2072295220F220F207C29
:10525000232B20937C0020917B0086958695869554
:1052600090E08170907033E0880F991F3A95E1F7D4
:10527000277F282B20937B0080917A008064809385
:105280007A0080917A0086FDFCCF209178004091D1
:105290007900942F80E030E0282B392BC901089544
:1052A0001F93CF93DF93182FEB0161E00E941C2D19
:1052B000E12FF0E0E254FE4F8491833051F480916D
:1052C0008000806880938000D0938900C09388001C
:1052D0009FC0843051F48091800080628093800070
:1052E000D0938B00C0938A0093C0813041F4209703
:1052F00009F487C084B5806884BDC7BD89C0823089
:1053000041F4209709F47DC084B5806284BDC8BD96
:105310007FC0863041F48091B00080688093B000F7
:10532000C093B30075C0873041F48091B0008062B3
:105330008093B000C093B4006BC0883051F480916A
:105340009000806880939000D0939900C09398005B
:105350005FC0893051F4809190008062809390000A
:10536000D0939B00C0939A0053C08A3051F480912F
:105370009000886080939000D0939D00C0939C0023
:1053800047C08B3051F48091A00080688093A000CA
:10539000D093A900C093A8003BC084918C3051F4F5
:1053A0008091A00080628093A000D093AB00C09356
:1053B000AA002EC08D3051F48091A00088608093A7
:1053C000A000D093AD00C093AC0022C08E3051F449
:1053D00080912001806880932001D0932901C0939F
:1053E000280116C08F3051F4809120018062809393
:1053F0002001D0932B01C0932A010AC0C038D105E7
:105400001CF4812F60E002C0812F61E00E943C2DDE
:10541000DF91CF911F910895883008F078C0E82F70
:10542000F0E0EE0FFF1FE65DF44F71836083833081
:10543000D9F0843030F4813009F444C0823060F413
:1054400039C0853051F18530D8F0863009F446C036
:10545000873009F05CC04FC0809169008C7F842B3D
:1054600080936900E89A089580916900440F551F60
:10547000440F551F837F842B80936900E99A089518
:105480008091690074E0440F551F7A95E1F78F7C95
:10549000842B80936900EA9A08958091690066E000
:1054A000440F551F6A95E1F78F73842B8093690031
:1054B000EB9A089580916A008C7F842B80936A0018
:1054C000EC9A089580916A00440F551F440F551FB0
:1054D000837F842B80936A00ED9A089580916A00FF
:1054E00024E0440F551F2A95E1F78F7C842B80938D
:1054F0006A00EE9A089580916A0096E0440F551F65
:105500009A95E1F78F73842B80936A00EF9A089540
:105510001F920F920FB60F920BB60F9211242F937A
:105520003F934F935F936F937F938F939F93AF932B
:10553000BF93EF93FF9380912E0B90912F0B892BAC
:1055400029F0E0912E0BF0912F0B0995FF91EF912F
:10555000BF91AF919F918F917F916F915F914F918B
:105560003F912F910F900BBE0F900FBE0F901F9089
:1055700018951F920F920FB60F920BB60F9211242F
:105580002F933F934F935F936F937F938F939F934B
:10559000AF93BF93EF93FF938091300B9091310BBA
:1055A000892B29F0E091300BF091310B0995FF9197
:1055B000EF91BF91AF919F918F917F916F915F918B
:1055C0004F913F912F910F900BBE0F900FBE0F90F8
:1055D0001F9018951F920F920FB60F920BB60F9255
:1055E00011242F933F934F935F936F937F938F93E8
:1055F0009F93AF93BF93EF93FF938091320B909162
:10560000330B892B29F0E091320BF091330B099584
:10561000FF91EF91BF91AF919F918F917F916F918A
:105620005F914F913F912F910F900BBE0F900FBE46
:105630000F901F9018951F920F920FB60F920BB6F6
:105640000F9211242F933F934F935F936F937F9308
:105650008F939F93AF93BF93EF93FF938091340BFE
:105660009091350B892B29F0E091340BF091350B9B
:105670000995FF91EF91BF91AF919F918F917F918C
:105680006F915F914F913F912F910F900BBE0F90B3
:105690000FBE0F901F9018951F920F920FB60F928A
:1056A0000BB60F9211242F933F934F935F936F93F9
:1056B0007F938F939F93AF93BF93EF93FF938091CB
:1056C0002A0B90912B0B892B29F0E0912A0BF0915A
:1056D0002B0B0995FF91EF91BF91AF919F918F9106
:1056E0007F916F915F914F913F912F910F900BBEE2
:1056F0000F900FBE0F901F9018951F920F920FB62C
:105700000F920BB60F9211242F933F934F935F93F9
:105710006F937F938F939F93AF93BF93EF93FF9379
:1057200080912C0B90912D0B892B29F0E0912C0B63
:10573000F0912D0B0995FF91EF91BF91AF919F9142
:105740008F917F916F915F914F913F912F910F902A
:105750000BBE0F900FBE0F901F9018951F920F92C7
:105760000FB60F920BB60F9211242F933F934F93C6
:105770005F936F937F938F939F93AF93BF93EF93B9
:10578000FF938091360B9091370B892B29F0E09194
:10579000360BF091370B0995FF91EF91BF91AF91C7
:1057A0009F918F917F916F915F914F913F912F9139
:1057B0000F900BBE0F900FBE0F901F9018951F9269
:1057C0000F920FB60F920BB60F9211242F933F93A7
:1057D0004F935F936F937F938F939F93AF93BF93F9
:1057E000EF93FF938091380B9091390B892B29F01F
:1057F000E091380BF091390B0995FF91EF91BF9132
:10580000AF919F918F917F916F915F914F913F9158
:105810002F910F900BBE0F900FBE0F901F901895F9
:105820001F920F920FB60F9211242F933F938F93D5
:105830009F93AF93BF9380913E0B90913F0BA091AC
:10584000400BB091410B3091420B0196A11DB11D4F
:10585000232F2D5F2D3720F02D570196A11DB11D4F
:105860002093420B80933E0B90933F0BA093400BF1
:10587000B093410B80913A0B90913B0BA0913C0B64
:10588000B0913D0B0196A11DB11D80933A0B9093F1
:105890003B0BA0933C0BB0933D0BBF91AF919F91FD
:1058A0008F913F912F910F900FBE0F901F901895E1
:1058B0006FB7F89486B590E0A0E0B0E0A89B08C070
:1058C0000097A105B10521F480E091E0A0E0B0E0EF
:1058D00020913A0B30913B0B40913C0B50913D0B8A
:1058E0006FBF542F432F322F2227280F391F4A1FF3
:1058F0005B1F82E0220F331F441F551F8A95D1F78B
:10590000B901CA010895EF92FF920F931F937B0193
:105910008C018FB7F89440913E0B50913F0B6091F2
:10592000400B7091410B8FBF2FB7F89480913E0BC5
:1059300090913F0BA091400BB091410B2FBF841B66
:10594000950BA60BB70BE816F9060A071B0760F7BD
:105950001F910F91FF90EF900895019759F0FC016E
:10596000EE0FFF1FEE0FFF1F32978FB7F89431979E
:10597000F1F78FBF0895789484B5826084BD84B5B3
:10598000816084BD85B5826085BD85B5816085BD3A
:10599000EEE6F0E0808181608083E1E8F0E08081E4
:1059A00082608083808181608083E0E8F0E0808194
:1059B00081608083E1EBF0E0808184608083E0EBB4
:1059C000F0E0808181608083E1E9F0E080818260A5
:1059D0008083808181608083E1EAF0E08081826061
:1059E0008083808181608083E1E2F1E08081826058
:1059F0008083808181608083E0E9F0E08081816044
:105A00008083E0EAF0E0808181608083E0E2F1E081
:105A1000808181608083EAE7F0E080818460808318
:105A200080818260808380818160808380818068C2
:105A300080831092C1000895282F30E0C901885852
:105A40009E4FFC0194912E5C3E4FF9018491882376
:105A500091F0E82FF0E0EE0FFF1FEC51FF4FA59102
:105A6000B491662329F48C91909589238C930895A1
:105A70008C91892B8C930895482F50E0CA01825451
:105A80009E4FFC012491CA0188589E4FFC019491BD
:105A90004E5C5E4FFA013491332309F477C0222320
:105AA00009F462C0233021F4809180008F7705C013
:105AB000243031F4809180008F7D8093800054C029
:105AC000213019F484B58F7704C0223021F484B5D5
:105AD0008F7D84BD49C0263021F48091B0008F773E
