:100000000C9421010C94702A0C94A12A0C94D22AED
:100010000C94032B0C94342B0C94652B0C94962B82
:100020000C94C72B0C944B010C944B010C944B017A
:100030000C944B010C944B010C944B010C944B0110
:100040000C944B010C944B010C944B010C944B0100
:100050000C944B010C944B010C944B010C94F82B19
:100060000C944B010C942D300C944B010C944B01CF
:100070000C944B010C944B010C944B010C944B01D0
:100080000C944B010C944B010C944B010C944B01C0
:100090000C946E300C944B010C944B010C944B015E
:1000A0000C944B010C944B010C944B010C944B01A0
:1000B0000C944B010C944B010C944B010C944B0190
:1000C0000C944B010C944B010C944B010C94AF30ED
:1000D0000C944B010C944B010C94F0300C944B019C
:1000E0000C944B0100002100240027002A002D0061
:1000F0003000330001010000040107010A01000083
:100100002200250028002B002E00310034000201BF
:100110000000050108010B0100002000230026005B
:1001200029002C002F00320000010000030106010D
:10013000090105050505070508080808020202026D
:100140000A0A080804040404010101010101010173
:100150000303030303030303040707070C0C0C0C3E
:100160000C0C0C0C02020202060606060606060627
:100170000B0B0B0B0B0B0B0B0102102020080810B4
:100180002040102040800201020108040201010207
:1001900004081020408080402010080402018004E0
:1001A000020180402010080402010804020101023B
:1001B0000408102040800102040810204080000044
:1001C000090A02080B0C0D070603040100000000D9
:1001D000000000000000000000000000000000001F
:1001E00000000000000000000000100F0E000000E2
:1001F00000000000000000000000000000000000FF
:1002000000000000494E46494E4954594E414ECDDA
:10021000CCCC3D0AD7233C17B7D13877CC2B3295BD
:1002200095E6241FB14F0A000020410000C842009B
:10023000401C4620BCBE4CCA1B0E5AAEC59D740065
:10024000853211241FBECFEFD1E2DEBFCDBF18E053
:10025000A0E0B2E0E4E4FDE600E00BBF02C00790DE
:100260000D92A237B107D9F71EE0A2E7B8E001C0AE
:100270001D92A534B107E1F712E0C2E4D2E004C058
:100280002297FE010E945A36C034D107C9F70E9456
:1002900001290C94A0360C940000A0E0B0E0E3E546
:1002A000F1E00C946F36EC015B016115710519F0FA
:1002B000FB0191838083F9908F2D90E00E945E3640
:1002C000892BC9F7FDE2FF1621F4F990EE24E3949F
:1002D00005C02BE2F21609F4F990EE248E010150CC
:1002E0001040C80164E072E043E050E00E94AD02BB
:1002F000892B01F58E010E5F1F4FC80167E072E088
:1003000045E050E00E94AD02892B19F48E01095F8F
:100310001F4FA114B10419F0F50111830083E0FC13
:1003200004C070E090E080E814C070E090E080E8E5
:100330006FEF08C1C8016CE072E043E050E00E943A
:10034000AD02892B69F4A114B10429F470E090E0A6
:1003500080EC6FE7F7C02296F501D183C083F6CF1A
:100360008824992440E050E060E070E0EF2DE053F5
:10037000EA30A0F5F2E0EF2A8E2D90E09C01287083
:100380003070E2FE06C0232B79F50894811C911C85
:100390002BC0232B19F0089481089108DB01CA01B6
:1003A00012E0880F991FAA1FBB1F1A95D1F7480F9B
:1003B000591F6A1F7B1F440F551F661F771F4E0F63
:1003C000511D611D711D483929E9520729E962074C
:1003D00029E1720748F084E0E82A06C0EE3F31F4D4
:1003E000E3FC39C098E0E92AF990C0CFE53311F079
:1003F000E53189F529912D3219F4E0E1EE2A05C0A5
:100400002B3219F081E090E003C0299182E090E066
:10041000E22FE053EA3018F0C81BD90B1CC020E0D3
:1004200030E0FCE020383F075CF4C901880F991FD9
:10043000880F991F280F391F220F331F2E0F311DD0
:10044000E991E053EA3068F3E4FE03C0309521956A
:100450003F4F820E931ECE2CDD24E1FE07C0A11477
:10046000B10421F02197F501D183C083CB01BA01FA
:100470000E9457347B018C01F3E0CF22DD2423E07E
:10048000C216D10421F417FB109517F910955701E6
:100490006801C801B70120E030E040E050E00E9470
:1004A000BA33882309F44AC097FE0DC023E2E22E36
:1004B00022E0F22E9094819491089394C0E2D0E0CF
:1004C00000E010E012C09BE3E92E92E0F92EF6CF97
:1004D000F7012591359145915491C601B5010E94CE
:1004E0000D355B016C018C1A9D0A8C169D0684F7F4
:1004F000D595C7950F5F1F4F0630110529F08CEF7A
:100500009FEFE80EF91EF1CFC501D6017C018D01E8
:100510008C2D880F8D2D881F8F3F51F0C601B5019E
:1005200020E030E040E050E00E94BA33882331F40C
:1005300082E290E09093440E8093430E7E2D9F2D97
:10054000802F612F272F392F482F562FB901CA012D
:10055000CDB7DEB7ECE00C948B36FB01DC014150EB
:10056000504088F08D9181341CF08B350CF4805E06
:10057000659161341CF06B350CF4605E861B611173
:1005800071F3990B0895881BFCCFFC0181918617AC
:1005900021F08823D9F7992708953197CF0108953D
:1005A000CF93DF93AC01EFE0F7E0C1E0D0E06081F2
:1005B0007181461757075CF5FE013197EE0FFF1F5B
:1005C000EE0FFF1FDF01A55FB84F2D913C91E35F58
:1005D000F84F0190F081E02D421B530BCC0FDD1F33
:1005E000CC0FDD1FC35FD84F888199818E1B9F0B75
:1005F000621B730B9C01429FC001439F900D529F51
:10060000900D11240E94F4356E0F7F1F10C09E01C3
:100610002F5F21963496CD33D10549F62D3319F04D
:1006200060E070E004C06091FD077091FE07CB01AF
:10063000DF91CF91089580918508813031F487EF63
:100640009DE060E072E00E94912E80E060E00E94F8
:10065000242D06C061E070E080E090E00E946B2CE9
:1006600089E00E94AF2D892BA9F380918508813004
:1006700031F487EF9DE06AE172E00E94912E0895C7
:100680000CC087EF9DE060E372E00E94912E6CE267
:1006900071E080E090E00E946B2C87EF9DE00E946B
:1006A0002A32882371F308952F923F924F925F92DE
:1006B0006F927F928F929F92AF92BF92CF92DF9272
:1006C000EF92FF920F931F93DF93CF93CDB7DEB7D7
:1006D00064970FB6F894DEBF0FBECDBF9C8B8B8B9B
:1006E000788B6F875A8B498B1092C30A1092C20A7B
:1006F000E090820AF090830A0091840A1091850AA2
:10070000A090860AB090870AC090880AD090890A83
:10071000C801B701A60195010E94093588230CF490
:1007200034C2C801B70120918A0A30918B0A4091E6
:100730008C0A50918D0A0E94093588230CF425C239
:100740006091920A7091930A8091940A9091950A0F
:1007500020E030E040EA51E40E940D356093BA0A8F
:100760007093BB0A8093BC0A9093BD0ACEC180915E
:10077000BE089091BF082B893C892817390709F0DA
:10078000C2C060E070E080E89FE32091FB063091FA
:10079000FC064091FD065091FE060E94BE337B018F
:1007A0008C016091920A7091930A8091940A9091C1
:1007B000950A20E030E040EA51E40E940D359B01AB
:1007C000AC01C801B7010E94BE339B01AC0160932C
:1007D000BE0A7093BF0A8093C00A9093C10AC801F1
:1007E000B7010E94BE336093BA0A7093BB0A80932C
:1007F000BC0A9093BD0A20919E0A30919F0A4091B5
:10080000A00A5091A10A0E9409351816A4F58091FA
:100810008508813031F487EF9DE063E372E00E9448
:10082000912EE0909E0AF0909F0A0091A00A1091EC
:10083000A10A60E070E080E89FE32091FB06309120
:10084000FC064091FD065091FE060E94BE33A801B1
:1008500097010E94BE336093BE0A7093BF0A8093D3
:10086000C00A9093C10AE092BA0AF092BB0A0093C0
:10087000BC0A1093BD0A0091C20A1091C30A0F5F0F
:100880001F4F1093C30A0093C20A6091920A70919D
:10089000930A8091940A9091950A20E030E040EA12
:1008A00051EC0E940D356B017C01000F111F0E50A1
:1008B000174F2091BA0A3091BB0A4091BC0A50915F
:1008C000BD0A0E9456334B015C01C701B60120915D
:1008D0009E0A30919F0A4091A00A5091A10A0E945D
:1008E00056339B01AC01C501B4010E94BE3320E028
:1008F00030E44CE156E40E940D350E942634D801C4
:100900006D937C93E2C0E091C20AF091C30AFE8726
:10091000ED872B893C89E217F3070CF0FCC060904F
:10092000BA0A7090BB0A8090BC0A9090BD0A809170
:100930009E0A90919F0AA091A00AB091A10A89876E
:100940009A87AB87BC87C401B30129853A854B855B
:100950005C850E94BA3388230CF0DDC0E090AE0ABB
:10096000F090AF0A0091B00A1091B10A60E070E017
:1009700080E89FE32091FB063091FC064091FD0644
:100980005091FE060E94BE331B012C01C401B3012D
:10099000A40193010E940D355B016C01C801B701F0
:1009A000A80197010E945633A20191010E940D35C2
:1009B0009B01AC01C601B5010E9456330E947435FB
:1009C000A40193010E945533A80197010E94BE33F0
:1009D0009B01AC016093BE0A7093BF0A8093C00A6A
:1009E0009093C10AC201B1010E94BE337B018C0108
:1009F0006093BA0A7093BB0A8093BC0A9093BD0AB5
:100A000029853A854B855C850E9409351816ECF4DA
:100A1000C201B10129853A854B855C850E94BE33B0
:100A20006093BE0A7093BF0A8093C00A9093C10A74
:100A300089859A85AB85BC858093BA0A9093BB0A59
:100A4000A093BC0AB093BD0A66C08D849E840894AE
:100A5000811C911C9092C30A8092C20A6091920AF2
:100A60007091930A8091940A9091950A20E030E069
:100A700040EA51EC0E940D355B016C01880C991C19
:100A8000A2EFB8E08A0E9B1EC801B701A60195012E
:100A90000E9456337B018C0169857A858B859C8504
:100AA000A60195010E9456339B01AC01C801B70114
:100AB0000E94BE3320E030E44CE156E40E940D3544
:100AC0000E942634F401718360838091C20A909160
:100AD000C30A883C91059CF080918508813061F4BF
:100AE00087EF9DE06BE572E00E94912E87EF9DE01D
:100AF00062EC72E00E94912E109249080CC02B8982
:100B00003C89215030403C8B2B8B8B899C8918165B
:100B100019060CF42CCE80918508813009F097C419
:100B200074EFE72E78E0F72E01E010E026C087EFA3
:100B30009DE066EE72E00E94722ED7016D917D916C
:100B40007D01882777FD8095982F0E94593420E0F9
:100B500030E44CE156E40E94BE330E942634AB01DF
:100B6000BC0187EF9DE024E030E00E948C2F87EFEE
:100B70009DE00E947A2E0F5F1F4F8091C20A9091D4
:100B8000C30A801791079CF662C4C601B501A8018B
:100B900097010E94093588230CF436C2C601B501BD
:100BA00020918A0A30918B0A40918C0A50918D0ACB
:100BB0000E94093588230CF427C26091960A70912F
:100BC000970A8091980A9091990A20E030E040EAD3
:100BD00051E40E940D356093BA0A7093BB0A80936A
:100BE000BC0A9093BD0AD0C18091C0089091C10801
:100BF000EF85F889E817F90709F0C4C060E070E0F4
:100C000080E89FE32091FF063091000740910107A3
:100C1000509102070E94BE337B018C016091960ABD
:100C20007091970A8091980A9091990A20E030E09B
:100C300040EA51E40E940D359B01AC01C801B701A7
:100C40000E94BE339B01AC016093BE0A7093BF0A41
:100C50008093C00A9093C10AC801B7010E94BE33B5
:100C60006093BA0A7093BB0A8093BC0A9093BD0A42
:100C70002091A20A3091A30A4091A40A5091A50A9A
:100C80000E9409351816A4F580918508813031F449
:100C900087EF9DE063E372E00E94912EE090A20A4C
:100CA000F090A30A0091A40A1091A50A60E070E0F8
:100CB00080E89FE32091FF063091000740910107F3
:100CC000509102070E94BE33A80197010E94BE33D3
:100CD0006093BE0A7093BF0A8093C00A9093C10AC2
:100CE000E092BA0AF092BB0A0093BC0A1093BD0AC4
:100CF0000091C20A1091C30A0F5F1F4F1093C30ADD
:100D00000093C20A6091960A7091970A8091980A9E
:100D10009091990A20E030E040EA51EC0E940D35B4
:100D20006B017C01000F111F0E50174FC701B60158
:100D30002091BA0A3091BB0A4091BC0A5091BD0A79
:100D40000E9456334B015C01C701B6012091A20AF3
:100D50003091A30A4091A40A5091A50A0E945633EB
:100D60009B01AC01C501B4010E94BE3320E030E418
:100D70004CE156E40E940D350E942634D8016D9353
:100D80007C93E2C0E091C20AF091C30AFC8BEB8B2A
:100D90002F853889E217F3070CF0FCC06090BA0A7F
:100DA0007090BB0A8090BC0A9090BD0A8091A20A04
:100DB0009091A30AA091A40AB091A50A8D839E8365
:100DC000AF83B887C401B3012D813E814F8158851F
:100DD0000E94BA3388230CF0DDC0E090B20AF09094
:100DE000B30A0091B40A1091B50A60E070E080E89F
:100DF0009FE32091FF063091000740910107509139
:100E000002070E94BE331B012C01C401B301A401DF
:100E100093010E940D355B016C01C801B701A80167
:100E200097010E945633A20191010E940D359B014A
:100E3000AC01C601B5010E9456330E947435A4016D
:100E400093010E945533A80197010E94BE339B0174
:100E5000AC016093BE0A7093BF0A8093C00A90935E
:100E6000C10AC201B1010E94BE337B018C016093B3
:100E7000BA0A7093BB0A8093BC0A9093BD0A2D8175
:100E80003E814F8158850E9409351816ECF4C20145
:100E9000B1012D813E814F8158850E94BE33609300
:100EA000BE0A7093BF0A8093C00A9093C10A8D81D5
:100EB0009E81AF81B8858093BA0A9093BB0AA093B4
:100EC000BC0AB093BD0A66C08B889C880894811CBC
:100ED000911C9092C30A8092C20A6091960A709106
:100EE000970A8091980A9091990A20E030E040EAB0
:100EF00051EC0E940D355B016C01880C991CA2EF2E
:100F0000B8E08A0E9B1EC801B701A60195010E9498
:100F100056337B018C016D817E818F819885A6017E
:100F200095010E9456339B01AC01C801B7010E9494
:100F3000BE3320E030E44CE156E40E940D350E94BF
:100F40002634F401718360838091C20A9091C30AB0
:100F5000883C91059CF080918508813061F487EF91
:100F60009DE06BE572E00E94912E87EF9DE062ECC0
:100F700072E00E94912E109249080CC02F8538898A
:100F800021503040388B2F878F8598891816190685
:100F90000CF42ACE80918508813009F058C244EFC4
:100FA000E42E48E0F42E01E010E026C087EF9DE03B
:100FB00066EE72E00E94722ED7016D917D917D01E7
:100FC000882777FD8095982F0E94593420E030E4DF
:100FD0004CE156E40E94BE330E942634AB01BC01B2
:100FE00087EF9DE024E030E00E948C2F87EF9DE0AA
:100FF0000E947A2E0F5F1F4F8091C20A9091C30A00
:10100000801791079CF623C260919A0A70919B0AFF
:1010100080919C0A90919D0A20E030E040EA51E4E2
:101020000E940D356093BA0A7093BB0A8093BC0A84
:101030009093BD0ACEC18091C2089091C308E989FE
:10104000FA89E817F90709F0C2C060E070E080E8AB
:101050009FE32091030730910407409105075091C9
:1010600006070E94BE337B018C0160919A0A709141
:101070009B0A80919C0A90919D0A20E030E040EA12
:1010800051E40E940D359B01AC01C801B7010E94DB
:10109000BE339B01AC016093BE0A7093BF0A80937C
:1010A000C00A9093C10AC801B7010E94BE33609381
:1010B000BA0A7093BB0A8093BC0A9093BD0A209130
:1010C000A60A3091A70A4091A80A5091A90A0E9445
:1010D00009351816A4F580918508813031F487EF21
:1010E0009DE063E372E00E94912EE090A60AF090EA
:1010F000A70A0091A80A1091A90A60E070E080E8B0
:101100009FE3209103073091040740910507509118
:1011100006070E94BE33A80197010E94BE33609368
:10112000BE0A7093BF0A8093C00A9093C10AE092EE
:10113000BA0AF092BB0A0093BC0A1093BD0A009150
:10114000C20A1091C30A0F5F1F4F1093C30A009386
:10115000C20A60919A0A70919B0A80919C0A9091B0
:101160009D0A20E030E040EA51EC0E940D356B0111
:101170007C01000F111F0E50174F2091BA0A3091B9
:10118000BB0A4091BC0A5091BD0A0E9456334B01E4
:101190005C01C701B6012091A60A3091A70A4091CF
:1011A000A80A5091A90A0E9456339B01AC01C501BF
:1011B000B4010E94BE3320E030E44CE156E40E94CA
:1011C0000D350E942634D8016D937C93E2C0E091E6
:1011D000C20AF091C30AFC8BEB8B29893A89E2178A
:1011E000F3070CF0FCC06090BA0A7090BB0A8090C4
:1011F000BC0A9090BD0A8091A60A9091A70AA0917E
:10120000A80AB091A90A89839A83AB83BC83C401DD
:10121000B30129813A814B815C810E94BA338823D2
:101220000CF0DDC0E090B60AF090B70A0091B80A61
:101230001091B90A60E070E080E89FE32091030715
:101240003091040740910507509106070E94BE3374
:101250001B012C01C401B301A40193010E940D35AF
:101260005B016C01C801B701A80197010E945633C8
:10127000A20191010E940D359B01AC01C601B5018F
:101280000E9456330E947435A40193010E94553385
:10129000A80197010E94BE339B01AC016093BE0A76
:1012A0007093BF0A8093C00A9093C10AC201B10132
:1012B0000E94BE337B018C016093BA0A7093BB0A13
:1012C0008093BC0A9093BD0A29813A814B815C814D
:1012D0000E9409351816ECF4C201B10129813A8146
:1012E0004B815C810E94BE336093BE0A7093BF0A3B
:1012F0008093C00A9093C10A89819A81AB81BC8195
:101300008093BA0A9093BB0AA093BC0AB093BD0A1B
:1013100066C08B889C880894811C911C9092C30A9B
:101320008092C20A60919A0A70919B0A80919C0AED
:1013300090919D0A20E030E040EA51EC0E940D358A
:101340005B016C01880C991CA2EFB8E08A0E9B1E11
:10135000C801B701A60195010E9456337B018C019B
:1013600069817A818B819C81A60195010E94563307
:101370009B01AC01C801B7010E94BE3320E030E4FC
:101380004CE156E40E940D350E942634F40171832D
:1013900060838091C20A9091C30A883C91059CF0B9
:1013A00080918508813061F487EF9DE06BE572E004
:1013B0000E94912E87EF9DE062EC72E00E94912ED8
:1013C000109249080CC029893A89215030403A8B43
:1013D000298B89899A89181619060CF42CCE8091CC
:1013E00085088130A1F594EFE92E98E0F92E01E00F
:1013F00010E026C087EF9DE066EE72E00E94722E3C
:10140000D7016D917D917D01882777FD8095982F7B
:101410000E94593420E030E44CE156E40E94BE338F
:101420000E942634AB01BC0187EF9DE024E030E050
:101430000E948C2F87EF9DE00E947A2E0F5F1F4F36
:101440008091C20A9091C30A801791079CF6649616
:101450000FB6F894DEBF0FBECDBFCF91DF911F91C5
:101460000F91FF90EF90DF90CF90BF90AF909F9043
:101470008F907F906F905F904F903F902F90089546
:101480002F923F924F925F926F927F928F929F9294
:10149000AF92BF92CF92DF92EF92FF920F931F9382
:1014A000DF93CF93CDB7DEB766970FB6F894DEBF64
:1014B0000FBECDBF9E8B8D8B7A8B698B5C8B4B8BDC
:1014C000609196087091970880919808909199087A
:1014D00020918608309187084091880850918908AA
:1014E0000E9455336D877E878F87988B20E030E090
:1014F00040E050E00E94093518164CF08D859E851D
:10150000AF85B889B0588D879E87AF87B88B8D859A
:101510009E85AF85B8898093820A9093830AA093B1
:10152000840AB093850A60919A0870919B08809113
:101530009C0890919D0820918A0830918B084091D9
:101540008C0850918D080E94553369877A878B8764
:101550009C8720E030E040E050E00E9409351816FA
:101560004CF089859A85AB85BC85B05889879A8768
:10157000AB87BC8789859A85AB85BC858093860AB5
:101580009093870AA093880AB093890A60919E0875
:1015900070919F088091A0089091A10820918E08D9
:1015A00030918F0840919008509191080E945533D6
:1015B0006D837E838F83988720E030E040E050E0A9
:1015C0000E94093518164CF08D819E81AF81B88537
:1015D000B0588D839E83AF83B8878D819E81AF8104
:1015E000B88580938A0A90938B0AA0938C0AB09353
:1015F0008D0A6D857E858F8598899B01AC010E943F
:101600000D357B018C0169857A858B859C859B01D5
:10161000AC010E940D359B01AC01C801B7010E94CD
:1016200056337B018C016D817E818F8198859B0172
:10163000AC010E940D359B01AC01C801B7010E94AD
:1016400056330E9474357B018C0160938E0A70932F
:101650008F0A8093900A9093910A6D857E858F857D
:101660009889A80197010E94BE335B016C016093C9
:10167000920A7093930A8093940A9093950A6985CD
:101680007A858B859C85A80197010E94BE333B011A
:101690004C016093960A7093970A8093980A9093EE
:1016A000990A6D817E818F819885A80197010E949A
:1016B000BE331B012C0160939A0A70939B0A80939E
:1016C0009C0A90939D0AE090C608F090C70800918C
:1016D000C8081091C908C801B701A60195010E9468
:1016E0000D3569837A838B839C8360939E0A709304
:1016F0009F0A8093A00A9093A10AC801B701A40190
:1017000093010E940D353B014C016093A20A709336
:10171000A30A8093A40A9093A50AC801B701A20165
:1017200091010E940D355B016C016093A60A7093D4
:10173000A70A8093A80A9093A90A6D857E858F8554
:10174000988929853A854B855C850E9409358823CF
:101750008CF06D857E858F8598892D813E814F81A6
:1017600058850E94093588232CF069817A818B8104
:101770009C811DC069857A858B859C852D853E85DC
:101780004F8558890E94093588237CF069857A85C0
:101790008B859C852D813E814F8158850E9409351E
:1017A00088231CF0C401B30102C0C601B50120E0CA
:1017B00030E543EC57E40E94BE336093AA0A70936D
:1017C000AB0A8093AC0A9093AD0AE090AA0AF0901D
:1017D000AB0A0091AC0A1091AD0A69817A818B81C4
:1017E0009C81A80197010E94BE336093AE0A70935A
:1017F000AF0A8093B00A9093B10AC401B301A80163
:1018000097010E94BE336093B20A7093B30A80932B
:10181000B40A9093B50AC601B501A80197010E94C8
:10182000BE336093B60A7093B70A8093B80A909358
:10183000B90A80918508813009F062C087EF9DE088
:101840000E947A2E87EF9DE069EE72E00E94722E70
:1018500087EF9DE06D897E890E94672F87EF9DE06D
:101860006DEF72E00E94722E87EF9DE069897A89A0
:101870000E94672F87EF9DE061E173E00E94722E66
:1018800087EF9DE06B897C890E94672F87EF9DE041
:1018900065E273E00E94722E4091AE0A5091AF0A49
:1018A0006091B00A7091B10A87EF9DE00E942230EA
:1018B00087EF9DE06FE273E00E94722E4091B20AC2
:1018C0005091B30A6091B40A7091B50A87EF9DE018
:1018D0000E94223087EF9DE069E373E00E94722E40
:1018E0004091B60A5091B70A6091B80A7091B90A4E
:1018F00087EF9DE00E94223087EF9DE00E947A2EC4
:1019000066960FB6F894DEBF0FBECDBFCF91DF91C4
:101910001F910F91FF90EF90DF90CF90BF90AF900D
:101920009F908F907F906F905F904F903F902F90FF
:1019300008952F923F924F925F926F927F928F9273
:101940009F92AF92BF92CF92DF92EF92FF920F934E
:101950001F93DF93CF9300D000D000D0CDB7DEB778
:101960009A8389831B012A013C832B838091490838
:10197000813061F489819A810E94400A89819A812B
:10198000B101A2012B813C810E94540329813A813B
:101990001216130624F488E161E00E94242D12142B
:1019A000130424F48BE161E00E94242D1414150427
:1019B0000CF069C58EE161E00E94242D64C5809120
:1019C0004908813009F002C18091BE089091BF089A
:1019D0000196A981BA818A1B9B0B9E838D8380917E
:1019E000C20A9091C30AED81FE81E817F9070CF055
:1019F00040C0E090920AF090930A0091940A1091EE
:101A0000950A60E070E080E89FE32091FB0630914A
:101A1000FC064091FD065091FE060E94BE333B013C
:101A20004C01C801B70120E030E040EA51E40E94D7
:101A30000D355B016C01C801B70120E030E040EAE0
:101A400051EC0E940D3520919E0A30919F0A4091E1
:101A5000A00A5091A10A0E9456337B018C012D816E
:101A60003E81220F331F2E50374FD9016D917C914B
:101A700044C0E981FA81E817F9070CF05BC0E090F7
:101A8000920AF090930A0091940A1091950A60E0EE
:101A900070E080E89FE32091FB063091FC064091C6
:101AA000FD065091FE060E94BE333B014C01C80169
:101AB000B70120E030E040EA51E40E940D355B01BF
:101AC0006C01C801B70120E030E040EA51EC0E940F
:101AD0000D3520919E0A30919F0A4091A00A5091A5
:101AE000A10A0E9456337B018C01E981FA81EE0F35
:101AF000FF1FEE50F74F60817181882777FD809539
:101B0000982F0E94593420E030E44CE156E40E94C2
:101B1000BE339B01AC01C801B7010E940D359B018A
:101B2000AC01C601B5010E9456339B01AC01C40152
:101B3000B30116C060E070E080E89FE32091FB06EF
:101B40003091FC064091FD065091FE060E94BE3386
:101B500020919E0A30919F0A4091A00A5091A10ABB
:101B60000E94BE336093CA087093CB088093CC0860
:101B70009093CD086091CA087091CB088091CC08F1
:101B80009091CD0820EC31EE44E65CE40E940D35E6
:101B90006093CA087093CB088093CC089093CD08CB
:101BA00080918508813091F487EF9DE066EE72E0C8
:101BB0000E94722E4091CA085091CB086091CC08C7
:101BC0007091CD0887EF9DE00E94223060919608C9
:101BD00070919708809198089091990820918608B3
:101BE0003091870840918808509189080E940935F2
:101BF00018160CF050C083E00E94AF2D019751F4ED
:101C000080918508813009F099C087EF9DE063E4F9
:101C100073E04FC00E94402C2091DA083091DB081D
:101C20004091DC085091DD08621B730B840B950B0F
:101C30000E9457342091CA083091CB084091CC08BB
:101C40005091CD080E94093588230CF479C087E1B2
:101C500060E00E94242D86E161E00E94242D0E9414
:101C6000402C6093DA087093DB088093DC08909333
:101C7000DD0883E090E00E94952C86E160E00E9400
:101C8000242D29813A81215030403A832983232B06
:101C900009F056C04EC082E00E94AF2D019761F45A
:101CA00080918508813009F049C087EF9DE06BE5A0
:101CB00073E00E94912E42C00E94402C2091DA08CD
:101CC0003091DB084091DC085091DD08621B730BFA
:101CD000840B950B0E9457342091CA083091CB0891
:101CE0004091CC085091CD080E940935882344F1D9
:101CF00087E161E00E94242D86E161E00E94242DAD
:101D00000E94402C6093DA087093DB088093DC0813
:101D10009093DD0883E090E00E94952C86E160E0DE
:101D20000E94242D89819A8101979A838983892B26
:101D300039F488E160E00E94242D02C01A821982E1
:101D4000121413040CF08FC180914908813009F0FE
:101D5000F3C0A091C008B091C1081196A219B309AF
:101D6000BE83AD838091C20A9091C30AA817B907B8
:101D7000CCF5E090960AF090970A0091980A10919D
:101D8000990A60E070E080E89FE32091FF063091BF
:101D9000000740910107509102070E94BE333B01AA
:101DA0004C01C801B70120E030E040EA51E40E9454
:101DB0000D355B016C01C801B70120E030E040EA5D
:101DC00051EC0E940D352091A20A3091A30A409156
:101DD000A40A5091A50A0E9456337B018C01ED8123
:101DE000FE813BC0281639060CF05AC0E090960AD6
:101DF000F090970A0091980A1091990A60E070E0BB
:101E000080E89FE32091FF06309100074091010791
:101E1000509102070E94BE333B014C01C801B7013B
:101E200020E030E040EA51E40E940D355B016C0196
:101E3000C801B70120E030E040EA51EC0E940D35C6
:101E40002091A20A3091A30A4091A40A5091A50AB8
:101E50000E9456337B018C01F101EE0FFF1FEE5003
:101E6000F74F60817181882777FD8095982F0E94B8
:101E7000593420E030E44CE156E40E94BE339B012B
:101E8000AC01C801B7010E940D359B01AC01C60130
:101E9000B5010E9456339B01AC01C401B30116C0C9
:101EA00060E070E080E89FE32091FF06309100073A
:101EB00040910107509102070E94BE332091A20A6F
:101EC0003091A30A4091A40A5091A50A0E94BE3302
:101ED0006093CE087093CF088093D0089093D10878
:101EE0006091CE087091CF088091D0089091D10870
:101EF00020EC31EE44E65CE40E940D356093CE08A0
:101F00007093CF088093D0089093D1088091850872
:101F1000813091F487EF9DE066EE72E00E94722EB0
:101F20004091CE085091CF086091D0087091D108AF
:101F300087EF9DE00E94223060919A0870919B0883
:101F400080919C0890919D0820918A0830918B087F
:101F500040918C0850918D080E94093518167CF527
:101F600083E10E94AF2D019751F480918508813063
:101F700009F077C087EF9DE063E773E02EC00E9411
:101F8000402C2091DE083091DF084091E00850910C
:101F9000E108621B730B840B950B0E945734209150
:101FA000CE083091CF084091D0085091D1080E94BE
:101FB000093588230CF457C08AE161E02FC082E123
:101FC0000E94AF2D019761F480918508813009F05E
:101FD00048C087EF9DE06BE873E00E94912E41C0FE
:101FE0000E94402C2091DE083091DF084091E008EB
:101FF0005091E108621B730B840B950B0E945734C0
:102000002091CE083091CF084091D0085091D1084E
:102010000E94093588233CF18AE160E00E94242D6A
:1020200089E161E00E94242D0E94402C6093DE082B
:102030007093DF088093E0089093E10883E090E0DC
:102040000E94952C89E160E00E94242D08942108CB
:1020500031082114310439F48BE160E00E94242D11
:1020600002C022243324141415040CF0B9C1809149
:102070004908813009F0FCC02091C2083091C308A2
:102080002F5F3F4F241935093E832D838091C20A6B
:102090009091C30A281739070CF040C0E0909A0AC3
:1020A000F0909B0A00919C0A10919D0A60E070E0FC
:1020B00080E89FE3209103073091040740910507D2
:1020C000509106070E94BE333B014C01C801B70185
:1020D00020E030E040EA51E40E940D355B016C01E4
:1020E000C801B70120E030E040EA51EC0E940D3514
:1020F0002091A60A3091A70A4091A80A5091A90AF6
:102100000E9456337B018C018D819E81880F991F1F
:102110008E50974FDC016D917C9141C04816590655
:102120000CF05AC0E0909A0AF0909B0A00919C0A29
:1021300010919D0A60E070E080E89FE32091030722
:102140003091040740910507509106070E94BE3365
:102150003B014C01C801B70120E030E040EA51E406
:102160000E940D355B016C01C801B70120E030E031
:1021700040EA51EC0E940D352091A60A3091A70A41
:102180004091A80A5091A90A0E9456337B018C0104
:10219000F201EE0FFF1FEE50F74F6081718188272B
:1021A00077FD8095982F0E94593420E030E44CE16F
:1021B00056E40E94BE339B01AC01C801B7010E94E6
:1021C0000D359B01AC01C601B5010E9456339B0140
:1021D000AC01C401B30116C060E070E080E89FE389
:1021E000209103073091040740910507509106079D
:1021F0000E94BE332091A60A3091A70A4091A80AF6
:102200005091A90A0E94BE336093D2087093D308FC
:102210008093D4089093D5086091D2087091D30828
:102220008091D4089091D50820EC31EE44E65CE42E
:102230000E940D356093D2087093D3088093D40820
:102240009093D50880918508813091F487EF9DE0C7
:1022500066EE72E00E94722E4091D2085091D3082F
:102260006091D4087091D50887EF9DE00E942230DC
:1022700060919E0870919F088091A0089091A1089C
:1022800020918E0830918F084091900850919108CC
:102290000E9409351816BCF585E10E94AF2D019703
:1022A00051F480918508813009F098C087EF9DE056
:1022B00063EA73E036C00E94402C2091E20830911E
:1022C000E3084091E4085091E508621B730B840B0E
:1022D000950B0E9457342091D2083091D308409139
:1022E000D4085091D5080E94093588230CF478C091
:1022F000E0917E08F0917F08EE0FFF1FE95AF74F3B
:10230000808161E038C084E10E94AF2D019761F4C3
:1023100080918508813009F061C087EF9DE06BEB0B
:1023200073E00E94912E5AC00E94402C2091E20836
:102330003091E3084091E4085091E508621B730B6B
:10234000840B950B0E9457342091D2083091D3080A
:102350004091D4085091D5080E94093588230CF487
:102360003FC0E0917E08F0917F08EE0FFF1FE95A11
:10237000F74F808160E00E94242DE0917E08F0916B
:102380007F08EE0FFF1FE15AF74F808161E00E9446
:10239000242D0E94402C6093E2087093E308809300
:1023A000E4089093E50883E090E00E94952CE0918A
:1023B0007E08F0917F08EE0FFF1FE15AF74F8081F2
:1023C00060E00E94242D08944108510841145104F2
:1023D00039F48EE160E00E94242D02C0442455248B
:1023E000EB81FC811E161F060CF04DC08091450844
:1023F000909146088731910519F50E94402C209153
:10240000E6083091E7084091E8085091E908621B1E
:10241000730B840B950B0E9457342091D608309192
:10242000D7084091D8085091D9080E9409358823CF
:1024300054F12B813C81215030403C832B8323C0BD
:10244000489709F50E94402C2091E6083091E70852
:102450004091E8085091E908621B730B840B950BBF
:102460000E9457342091D6083091D7084091D8085F
:102470005091D9080E94093588232CF08B819C81CA
:1024800001979C838B83A981BA811A161B060CF4D1
:1024900096CA121413040CF457CC141415040CF43B
:1024A000E6CDEB81FC811E161F060CF499CF8091BE
:1024B0004408813009F0F4C0E0908608F090870865
:1024C000009188081091890860919608709197088A
:1024D0008091980890919908A80197010E94093568
:1024E0002091BE083091BF081816C4F4B90188279E
:1024F00077FD8095982F0E9459342091FB063091EA
:10250000FC064091FD065091FE060E94BE339B01E1
:10251000AC01C801B7010E94563317C0B901882722
:1025200077FD8095982F0E9459342091FB063091B9
:10253000FC064091FD065091FE060E94BE339B01B1
:10254000AC01C801B7010E945533609386087093AF
:1025500087088093880890938908E0908A08F09013
:102560008B0800918C0810918D0860919A087091E9
:102570009B0880919C0890919D08A80197010E945A
:1025800009352091C0083091C1081816C4F4B9016A
:10259000882777FD8095982F0E9459342091FF0657
:1025A0003091000740910107509102070E94BE330D
:1025B0009B01AC01C801B7010E94563317C0B90195
:1025C000882777FD8095982F0E9459342091FF0627
:1025D0003091000740910107509102070E94BE33DD
:1025E0009B01AC01C801B7010E94553360938A0872
:1025F00070938B0880938C0890938D08E0908E08E0
:10260000F0908F08009190081091910860919E08B9
:1026100070919F088091A0089091A108A80197014E
:102620000E9409352091C2083091C3081816C4F4DD
:10263000B901882777FD8095982F0E945934209101
:1026400003073091040740910507509106070E9447
:10265000BE339B01AC01C801B7010E94563317C0BD
:10266000B901882777FD8095982F0E9459342091D1
:1026700003073091040740910507509106070E9417
:10268000BE339B01AC01C801B7010E945533609372
:102690008E0870938F08809390089093910830C0B3
:1026A0008091960890919708A0919808B091990808
:1026B0008093860890938708A0938808B093890830
:1026C00080919A0890919B08A0919C08B0919D08D8
:1026D00080938A0890938B08A0938C08B0938D0800
:1026E00080919E0890919F08A091A008B091A108A8
:1026F00080938E0890938F08A0939008B0939108D0
:102700001092BF081092BE081092C1081092C00823
:102710001092C3081092C2081092C5081092C40803
:1027200080918508813009F08EC087EF9DE063EDD0
:1027300073E00E94912E87EF9DE06CEF73E00E94A2
:10274000722E409186085091870860918808709198
:10275000890887EF9DE00E941E3087EF9DE064E0CE
:1027600074E00E94722E40919608509197086091F3
:1027700098087091990887EF9DE00E941E3087EFBE
:102780009DE06EE074E00E94722E6091BE08709130
:10279000BF0887EF9DE00E945F2F87EF9DE069E112
:1027A00074E00E94722E4091CA085091CB0860914B
:1027B000CC087091CD0887EF9DE00E94223087EF12
:1027C0009DE062E274E00E94722E40918A0850916E
:1027D0008B0860918C0870918D0887EF9DE00E94B6
:1027E0001E3087EF9DE06AE274E00E94722E4091F5
:1027F0009A0850919B0860919C0870919D0887EF02
:102800009DE00E941E3087EF9DE064E374E00E942B
:10281000722E6091C0087091C10887EF9DE00E9400
:102820005F2F87EF9DE06FE374E00E94722E40916E
:10283000CE085091CF086091D0087091D10887EFF1
:102840009DE00E94223026960FB6F894DEBF0FBEA0
:10285000CDBFCF91DF911F910F91FF90EF90DF904F
:10286000CF90BF90AF909F908F907F906F905F9030
:102870004F903F902F9008952F923F924F925F92EA
:102880006F927F928F929F92AF92BF92CF92DF9280
:10289000EF92FF920F931F93DF93CF93CDB7DEB7E5
:1028A00068970FB6F894DEBF0FBECDBF9E8B8D8BA1
:1028B000C0908608D0908708E0908808F09089083A
:1028C000C0927208D0927308E0927408F092750872
:1028D00040908A0850908B0860908C0870908D080A
:1028E0004092760850927708609278087092790842
:1028F00080918E0890918F08A0919008B0919108D6
:10290000898B9A8BAB8BBC8B80937A0890937B08D6
:10291000A0937C08B0937D0800917E0810917F08F9
:10292000AD89BE8994E0AA0FBB1F9A95E1F7AD5F10
:10293000B74FF80184E0EE0FFF1F8A95E1F7ED5FD6
:10294000F74F6D917D918D919C91208131814281D4
:1029500053810E9455339B01AC01C701B6010E940F
:1029600056334B015C0160939608709397088093EF
:10297000980890939908ED89FE89B4E0EE0FFF1F47
:10298000BA95E1F7E95FF74FA4E0000F111FAA9590
:10299000E1F7D801A95FB74F60817181828193818E
:1029A0002D913D914D915C910E9455339B01AC015D
:1029B000C301B2010E9456336D877E878F87988B43
:1029C00060939A0870939B0880939C0890939D084D
:1029D000ED89FE8974E0EE0FFF1F7A95E1F7E15073
:1029E000F84F0150184F6485758586859785D80105
:1029F0001C962D913D914D915C911F970E945533EE
:102A00009B01AC0169897A898B899C890E94563324
:102A100069877A878B879C8760939E0870939F084D
:102A20008093A0089093A108C501B401A701960165
:102A30000E9455337B018C0120E030E040E050E003
:102A40000E940935181624F017FB109517F91095F8
:102A50008091FB069091FC06A091FD06B091FE06C8
:102A60008D839E83AF83B887C801B7012D813E81D6
:102A70004F8158850E940D350E9426341B017093AA
:102A8000BF086093BE086D857E858F859889A301F8
:102A900092010E9455337B018C0120E030E040E040
:102AA00050E00E940935181624F017FB109517F90D
:102AB00010958091FF0690910007A0910107B091B9
:102AC000020789839A83AB83BC83C801B70129813C
:102AD0003A814B815C810E940D350E9426344B0166
:102AE0007093C1086093C00869857A858B859C8541
:102AF00029893A894B895C890E9455337B018C0175
:102B000020E030E040E050E00E940935181624F043
:102B100017FB109517F91095409003075090040784
:102B20006090050770900607C801B701A3019201E4
:102B30000E940D350E942634788F6F8B7093C308E6
:102B40006093C2081092C5081092C408A0904A0869
:102B5000B0904B08C0904C08D0904D08A092C60889
:102B6000B092C708C092C808D092C9082814390486
:102B7000A4F02616370674F0B101882777FD8095FA
:102B8000982F0E9459347B018C016D817E818F8149
:102B9000988523C0821493049CF0EF89F88D8E16DB
:102BA0009F0674F0B401882777FD8095982F0E94C6
:102BB00059347B018C0169817A818B819C810DC0A4
:102BC0002F89388DB901882777FD8095982F0E942D
:102BD00059347B018C01C301B201A60195010E9409
:102BE0000D3520EC31EE44E65CE40E94BE339B01DF
:102BF000AC0160E070E080E89FE30E94BE339B017F
:102C0000AC01C801B7010E940D356093EA087093CA
:102C1000EB088093EC089093ED08E090EA08F090C0
:102C2000EB080091EC081091ED08B101882777FDC1
:102C30008095982F0E9459349B01AC01C801B701BF
:102C40000E94BE336093CA087093CB088093CC086F
:102C50009093CD08B401882777FD8095982F0E9426
:102C600059349B01AC01C801B7010E94BE33609387
:102C7000CE087093CF088093D0089093D108AF8985
:102C8000B88DBD01882777FD8095982F0E94593413
:102C90009B01AC01C801B7010E94BE336093D2080A
:102CA0007093D3088093D4089093D508C101B401E0
:102CB0004F89588D20E030E00E94990C8091720875
:102CC00090917308A0917408B0917508809386085C
:102CD00090938708A0938808B0938908809176081C
:102CE00090917708A0917808B091790880938A082C
:102CF00090938B08A0938C08B0938D08ED89FE8982
:102D0000F0937F08E0937E0868960FB6F894DEBFD4
:102D10000FBECDBFCF91DF911F910F91FF90EF902C
:102D2000DF90CF90BF90AF909F908F907F906F90EB
:102D30005F904F903F902F9008952F923F924F9227
:102D40005F926F927F928F929F92AF92BF92CF923B
:102D5000DF92EF92FF920F931F93CF93DF938091B7
:102D60007E0890917F089093810880938008C0E04E
:102D7000D0E00F2EF0E02F2EF0E03F2EF0EF4F2EA0
:102D8000F1E45F2EF02D8091800890918108C817A2
:102D9000D90709F4BEC0D0937F08C0937E08809104
:102DA000860890918708A0918808B091890880933F
:102DB000960890939708A0939808B09399088091EB
:102DC0008A0890918B08A0918C08B0918D0880930F
:102DD0009A0890939B08A0939C08B0939D08E0905C
:102DE0008E08F0908F080091900810919108C8010A
:102DF000B70120913F08309140084091410850911F
:102E000042080E94563360939E0870939F088093F7
:102E1000A0089093A1081092BF081092BE081092CB
:102E2000C1081092C008A80197010E9455337B0188
:102E30008C0120E030E040E050E00E940935181697
:102E400024F017FB109517F91095A0900307B09088
:102E50000407C0900507D0900607C801B701A60176
:102E600095010E940D350E9426347B018C017093E0
:102E7000C3086093C2081092C5081092C40820923B
:102E8000C6083092C7084092C8085092C908B701D6
:102E9000882777FD8095982F0E9459343B014C017B
:102EA000C601B50120E030E040EF51E40E940D354D
:102EB00020EC31EE44E65CE40E94BE339B01AC01A1
:102EC00060E070E080E89FE30E94BE339B01AC01AC
:102ED000C401B3010E940D356093EA087093EB08BA
:102EE0008093EC089093ED08A40193010E94BE33F7
:102EF0006093D2087093D3088093D4089093D50838
:102F000080E090E060E070E0A70120E030E00E9407
:102F1000990C2196C230D10509F035CF80918008F7
:102F20009091810890937F0880937E08DF91CF91E4
:102F30001F910F91FF90EF90DF90CF90BF90AF90D7
:102F40009F908F907F906F905F904F903F902F90C9
:102F500008954F925F926F927F928F929F92AF925D
:102F6000BF92CF92DF92EF92FF920F931F93CF9376
:102F7000DF9380917E0890917F08909381088093E1
:102F800080082BE0422E28E0522EC0E0D0E0D09303
:102F90007F08C0937E088091860890918708A09151
:102FA0008808B09189088093960890939708A09319
:102FB0009808B093990880918A0890918B08A09105
:102FC0008C08B0918D0880939A0890939B08A093E9
:102FD0009C08B0939D0860910B0870910C0880913B
:102FE0000D0890910E08D2012D913D914D915C916B
:102FF0000E94553360939E0870939F088093A008A9
:103000009093A1081092BF081092BE081092C108B8
:103010001092C00820918E0830918F08409190083E
:10302000509191080E9455337B018C0120E030E0E3
:1030300040E050E00E940935181624F017FB109567
:1030400017F91095A0900307B0900407C0900507EA
:10305000D0900607C801B701A60195010E940D3561
:103060000E9426347B018C017093C3086093C208D0
:103070001092C5081092C40880E090E0A0EFB1E47F
:103080008093C6089093C708A093C808B093C90856
:10309000B701882777FD8095982F0E9459343B010E
:1030A0004C01C601B50120E030E040EF51E40E9440
:1030B0000D3520EC31EE44E65CE40E94BE339B010A
:1030C000AC0160E070E080E89FE30E94BE339B01AA
:1030D000AC01C401B3010E940D356093EA087093FE
:1030E000EB088093EC089093ED08A40193010E94F3
:1030F000BE336093D2087093D3088093D408909322
:10310000D50880E090E060E070E0A70120E030E0CA
:103110000E94990C2196A0E1B0E04A0E5B1EC230DD
:10312000D10509F034CF8091800890918108909367
:103130007F0880937E08DF91CF911F910F91FF90C0
:10314000EF90DF90CF90BF90AF909F908F907F9047
:103150006F905F904F9008952F923F924F925F92A1
:103160006F927F928F929F92AF92BF92CF92DF9297
:10317000EF92FF920F931F93CF93DF9380917E087E
:1031800090917F089093810880938008C0E0D0E000
:103190000F2EF0E02F2EF0E03F2EF0EF4F2EF1E457
:1031A0005F2EF02DD0937F08C0937E088091860813
:1031B00090918708A0918808B0918908809396081B
:1031C00090939708A0939808B093990880918A08E3
:1031D00090918B08A0918C08B0918D0880939A08EB
:1031E00090939B08A0939C08B0939D0880E090E08A
:1031F000A0E7B3EC80939E0890939F08A093A0084B
:10320000B093A1081092BF081092BE081092C10896
:103210001092C008BC01CD0120918E0830918F081A
:1032200040919008509191080E9455337B018C0188
:1032300020E030E040E050E00E940935181624F00C
:1032400017FB109517F91095A0900307B09004078D
:10325000C0900507D0900607C801B701A6019501E7
:103260000E940D350E9426347B018C017093C308A7
:103270006093C2081092C5081092C4082092C60834
:103280003092C7084092C8085092C908B7018827F1
:1032900077FD8095982F0E9459343B014C01C6015F
:1032A000B50120E030E040EF51E40E940D3520EC04
:1032B00031EE44E65CE40E94BE339B01AC0160E069
:1032C00070E080E89FE30E94BE339B01AC01C40123
:1032D000B3010E940D356093EA087093EB08809368
:1032E000EC089093ED08A40193010E94BE33609313
:1032F000D2087093D3088093D4089093D50880E0C7
:1033000090E060E070E0A70120E030E00E94990CBE
:103310002196C230D10509F045CF80918008909167
:10332000810890937F0880937E0880E090E0A0E081
:10333000B0E080938E0890938F08A0939008B0938C
:103340009108DF91CF911F910F91FF90EF90DF9047
:10335000CF90BF90AF909F908F907F906F905F9035
:103360004F903F902F9008954F925F926F927F926F
:103370008F929F92AF92BF92CF92DF92EF92FF9285
:103380000F931F93CF93DF9380E090E0A8ECB3EC12
:103390008093960890939708A0939808B093990803
:1033A00080939A0890939B08A0939C08B0939D08E3
:1033B00080918E0890918F08A0919008B09191080B
:1033C00080939E0890939F08A093A008B093A108B3
:1033D00060E070E088EC93EC2091860830918708DB
:1033E00040918808509189080E9455337B018C01D7
:1033F00020E030E040E050E00E940935181624F04B
:1034000017FB109517F910956090FB067090FC065D
:103410008090FD069090FE06C801B701A4019301BB
:103420000E940D350E9426342B017093BF086093D3
:10343000BE0860E070E088EC93EC20918A0830913F
:103440008B0840918C0850918D080E9455337B0168
:103450008C0120E030E040E050E00E940935181671
:1034600024F017FB109517F91095A090FF06B09067
:103470000007C0900107D0900207C801B701A6015C
:1034800095010E940D350E942634EB017093C1080E
:103490006093C0081092C3081092C2081092C50829
:1034A0001092C40880E090E0A0EFB1E48093C608D9
:1034B0009093C708A093C808B093C9084C165D063E
:1034C00064F0B201882777FD8095982F0E945934C7
:1034D0007B018C01C401B3010BC0BE01882777FDBD
:1034E0008095982F0E9459347B018C01C601B5014B
:1034F00020E030E040EF51E40E940D3520EC31EE49
:1035000044E65CE40E94BE339B01AC0160E070E0E5
:1035100080E89FE30E94BE339B01AC01C801B70164
:103520000E940D356093EA087093EB088093EC08D5
:103530009093ED08E090EA08F090EB080091EC0819
:103540001091ED08B201882777FD8095982F0E9491
:1035500059349B01AC01C801B7010E94BE3360938E
:10356000CA087093CB088093CC089093CD08BE0115
:10357000882777FD8095982F0E9459349B01AC01D4
:10358000C801B7010E94BE336093CE087093CF0884
:103590008093D0089093D108C201BE0140E050E072
:1035A00020E030E00E94990C80E090E0A0E0B0E0E4
:1035B0008093860890938708A0938808B093890821
:1035C00080938A0890938B08A0938C08B0938D0801
:1035D000DF91CF911F910F91FF90EF90DF90CF90EF
:1035E000BF90AF909F908F907F906F905F904F9023
:1035F00008950E94B4190E94AC180E94A9170E9455
:103600009D160895EF92FF920F931F9381E798E321
:10361000ACE6B2E48093C6089093C708A093C808AC
:10362000B093C90884EC9AE066E470E00E94C50299
:103630009093C80B8093C70B009709F443C0019681
:1036400060E070E00E944D019B01AC016093C608F0
:103650007093C7088093C8089093C9088091470861
:1036600090914808459781F4CA01B90123E333E3F7
:103670004BEC51E40E94BE336093C6087093C708B8
:103680008093C8089093C908E0904A08F0904B08CE
:1036900000914C0810914D086091C6087091C708C0
:1036A0008091C8089091C908A80197010E94093526
:1036B000181644F4E092C608F092C7080093C808B0
:1036C0001093C9081F910F91FF90EF900895CF9329
:1036D000DF93EC018091860890918708A09188087B
:1036E000B09189088093960890939708A0939808C2
:1036F000B093990880918A0890918B08A0918C08CA
:10370000B0918D0880939A0890939B08A0939C0891
:10371000B0939D0880918E0890918F08A091900899
:10372000B091910880939E0890939F08A093A00861
:10373000B093A1088091920890919308A091940869
:10374000B09195088093A2089093A308A093A40831
:10375000B093A50884EC9AE068E570E00E94C50289
:103760009093C80B8093C70B009729F1019660E0F6
:1037700070E00E944D019B01AC016093960870932C
:1037800097088093980890939908809147089091A2
:103790004808459781F4CA01B90123E333E34BECB0
:1037A00051E40E94BE33609396087093970880930B
:1037B000980890939908CE0169E570E00E94C502CF
:1037C0009093C80B8093C70B009729F1019660E096
:1037D00070E00E944D019B01AC0160939A087093C8
:1037E0009B0880939C0890939D0880914708909136
:1037F0004808459781F4CA01B90123E333E34BEC50
:1038000051E40E94BE3360939A0870939B088093A2
:103810009C0890939D0884EC9AE065E470E00E9417
:10382000C5029093C80B8093C70B009729F10196AE
:1038300060E070E00E944D019B01AC016093A20822
:103840007093A3088093A4089093A50880914708DB
:1038500090914808459781F4CA01B90123E333E305
:103860004BEC51E40E94BE336093A2087093A3080E
:103870008093A4089093A508CE016AE570E00E94A9
:10388000C5029093C80B8093C70B009729F101964E
:1038900060E070E00E944D019B01AC0160939E08C6
:1038A00070939F088093A0089093A1088091470887
:1038B00090914808459781F4CA01B90123E333E3A5
:1038C0004BEC51E40E94BE3360939E0870939F08B6
:1038D0008093A0089093A10880918208813009F01C
:1038E00054C06091960870919708809198089091C3
:1038F000990820E030E040E050E00E94BA3388238D
:1039000064F480E090E0A0E0B0E0809396089093AB
:103910009708A0939808B093990860919A087091BD
:103920009B0880919C0890919D0820E030E040E049
:1039300050E00E94BA33882364F480E090E0A0E075
:10394000B0E080939A0890939B08A0939C08B09352
:103950009D0860919E0870919F088091A0089091A9
:10396000A10820E030E040E050E00E94BA33882314
:1039700064F480E090E0A0E0B0E080939E08909333
:103980009F08A093A008B093A108809143088130BC
:1039900009F054C06091960870919708809198083A
:1039A0009091990820E030E048E453E40E94093502
:1039B000181664F480E090E0A8E4B3E480939608DD
:1039C00090939708A0939808B093990860919A08EB
:1039D00070919B0880919C0890919D0820E030E0B8
:1039E00048E453E40E940935181664F480E090E03E
:1039F000A8E4B3E480939A0890939B08A0939C0852
:103A0000B0939D0860919E0870919F088091A008D6
:103A10009091A10820E030E040EF52E40E94093587
:103A2000181664F480E090E0A0EFB2E480939E0862
:103A300090939F08A093A008B093A108DF91CF9125
:103A400008956F927F928F929F92AF92BF92CF9282
:103A5000DF92EF92FF920F931F93CF93DF93EC01CE
:103A6000FB01E80FF91F108287EF9DE0BE010E9465
:103A7000912E8881873409F0F2C6CE01019660E06C
:103A800070E00E944D010E9426347093CA0B60932F
:103A9000C90B6E31710509F48FC46F317105BCF427
:103AA0006430710509F457C4653071053CF4672B27
:103AB00059F16130710509F0D2C6F1C06431710568
:103AC00009F475C46531710509F0C9C670C4613265
:103AD000710509F4FCC4623271054CF46F31710553
:103AE00009F49BC46032710509F0B9C6BFC46B35D7
:103AF000710509F47EC66C35710509F47DC66A3519
:103B0000710509F0ACC671C680918508813031F429
:103B100087EF9DE068E474E00E94912ECE010E9440
:103B2000671B609196087091970880919808909112
:103B30009908FDC46091C2087091C308882777FD79
:103B40008095982F0E9459347B018C01C601B501E4
:103B50002091030730910407409105075091060713
:103B60000E940D3520EC31EE44E65CE40E94BE3349
:103B70009B01AC0160E070E080E89FE30E94BE33EF
:103B80009B01AC01C801B7010E940D356093EA08A2
:103B90007093EB088093EC089093ED08A090BE081A
:103BA000B090BF08B501882777FD8095982F0E94B7
:103BB00059349B01AC016091EA087091EB08809147
:103BC000EC089091ED080E94BE336093CA08709390
:103BD000CB088093CC089093CD08C090C008D090BB
:103BE000C108B601882777FD8095982F0E94593427
:103BF0009B01AC016091EA087091EB088091EC08A0
:103C00009091ED080E94BE336093CE087093CF0868
:103C10008093D0089093D108E090C208F090C30838
:103C2000B701882777FD8095982F0E9459349B0112
:103C3000AC016091EA087091EB088091EC089091DA
:103C4000ED080E94BE336093D2087093D30880932E
:103C5000D4089093D5080091C4081091C508B80104
:103C6000882777FD8095982F0E9459349B01AC01DD
:103C70006091EA087091EB088091EC089091ED0852
:103C80000E94BE336093D6087093D7088093D808FB
:103C90009093D908C501B601A701980159C3809135
:103CA0008508813031F487EF9DE06DE574E00E9476
:103CB000912ECE010E94671BCE010E94021B6091D3
:103CC0009608709197088091980890919908209192
:103CD00086083091870840918808509189080E9491
:103CE00055337B018C0120E030E040E050E00E9441
:103CF0000935181624F017FB109517F91095C8010F
:103D0000B7012091FB063091FC064091FD065091D1
:103D1000FE060E940D350E9426347093BF08609302
:103D2000BE0860919A0870919B0880919C089091C0
:103D30009D0820918A0830918B0840918C08509101
:103D40008D080E9455337B018C0120E030E040E07B
:103D500050E00E940935181624F017FB109517F94A
:103D60001095C801B7012091FF06309100074091DE
:103D70000107509102070E940D350E94263470936E
:103D8000C1086093C00860919E0870919F0880915F
:103D9000A0089091A10820918E0830918F08409141
:103DA0009008509191080E9455337B018C0120E0CE
:103DB00030E040E050E00E940935181624F017FB6F
:103DC000109517F91095C801B7012091030730919C
:103DD000040740910507509106070E940D350E9487
:103DE00026347093C3086093C208809184088130A0
:103DF00009F061C0609196087091970880919808C9
:103E00009091990820918608309187084091880800
:103E1000509189080E9455337B018C0160919A086A
:103E200070919B0880919C0890919D0820918A0830
:103E300030918B0840918C0850918D080E94553329
:103E40005B016C0160919E0870919F088091A008B1
:103E50009091A10820918E0830918F084091900890
:103E6000509191080E9455333B014C01C801B701A4
:103E7000A80197010E940D357B018C01C601B50197
:103E8000A60195010E940D359B01AC01C801B70147
:103E90000E9456337B018C01C401B301A40193013C
:103EA0000E940D359B01AC01C801B7010E94563339
:103EB0000E94743522C06091A2087091A30880917D
:103EC000A4089091A5082091920830919308409100
:103ED0009408509195080E9455337B018C0120E095
:103EE00030E040E050E00E940935181624F017FB3E
:103EF000109517F91095C801B70120910707309167
:103F000008074091090750910A070E940D350E9449
:103F100026347093C5086093C4082091BE08309180
:103F2000BF084091C0085091C10824173507E4F03C
:103F30008091C2089091C3082817390794F0B901FD
:103F4000882777FD8095982F0E9459347B018C013A
:103F50006091FB067091FC068091FD069091FE0633
:103F600030C042175307CCF08091C2089091C3082B
:103F70004817590794F0BA01882777FD8095982F44
:103F80000E9459347B018C016091FF0670910007FB
:103F9000809101079091020714C06091C20870914E
:103FA000C308882777FD8095982F0E9459347B019C
:103FB0008C0160910307709104078091050790912F
:103FC00006072091C6083091C7084091C808509153
:103FD000C9080E940D3520EC31EE44E65CE40E94F5
:103FE000BE339B01AC0160E070E080E89FE30E947B
:103FF000BE339B01AC01C801B7010E940D3560932F
:10400000EA087093EB088093EC089093ED086091B8
:10401000BE087091BF08882777FD8095982F0E9471
:1040200059349B01AC016091EA087091EB088091D2
:10403000EC089091ED080E94BE336093CA0870931B
:10404000CB088093CC089093CD086091C008709104
:10405000C108882777FD8095982F0E9459349B01CD
:10406000AC016091EA087091EB088091EC089091A6
:10407000ED080E94BE336093CE087093CF08809302
:10408000D0089093D1086091C2087091C308882726
:1040900077FD8095982F0E9459349B01AC01609167
:1040A000EA087091EB088091EC089091ED080E946D
:1040B000BE336093D2087093D3088093D408909352
:1040C000D5086091C4087091C508882777FD809550
:1040D000982F0E9459349B01AC016091EA087091BD
:1040E000EB088091EC089091ED080E94BE3360933C
:1040F000D6087093D7088093D8089093D9088091F8
:104100008508813009F014C187EF9DE00E947A2E66
:1041100087EF9DE066E774E00E94722E4091FB06F7
:104120005091FC066091FD067091FE0687EF9DE0C0
:104130000E941E3087EF9DE06DE774E00E94722EB2
:104140004091FF06509100076091010770910207AE
:1041500087EF9DE00E941E3087EF9DE065E874E0E8
:104160000E94722E40910307509104076091050749
:104170007091060787EF9DE00E941E3087EF9DE05B
:104180006DE874E00E94722E409107075091080775
:104190006091090770910A0787EF9DE00E94223025
:1041A00087EF9DE065E974E00E94722E4091EA0875
:1041B0005091EB086091EC087091ED0887EF9DE05D
:1041C0000E94223087EF9DE065EA74E00E94722E23
:1041D00040919608509197086091980870919908BD
:1041E00087EF9DE00E941E3087EF9DE06EE074E057
:1041F0000E94722E6091BE087091BF0887EF9DE00B
:104200000E945F2F87EF9DE069E174E00E94722EAB
:104210004091CA085091CB086091CC087091CD08AC
:1042200087EF9DE00E94223087EF9DE06EEA74E008
:104230000E94722E40919A0850919B0860919C08B0
:1042400070919D0887EF9DE00E941E3087EF9DE0F2
:1042500064E374E00E94722E6091C0087091C108FE
:1042600087EF9DE00E945F2F87EF9DE06FE374E092
:104270000E94722E4091CE085091CF086091D008D4
:104280007091D10887EF9DE00E94223087EF9DE07A
:1042900067EB74E00E94722E40919E0850919F0837
:1042A0006091A0087091A10887EF9DE00E941E30E8
:1042B00087EF9DE060EC74E00E94722E6091C2086E
:1042C0007091C30887EF9DE00E945F2F87EF9DE00C
:1042D0006BEC74E00E94722E4091D2085091D3088A
:1042E0006091D4087091D50887EF9DE00E9422303C
:1042F00087EF9DE064ED74E00E94722E6091C40827
:104300007091C50887EF9DE00E945F2F87EF9DE0C9
:104310006EED74E00E94722E4091D6085091D7083D
:104320006091D8087091D90887EF9DE00E942230F3
:104330006091C0087091C1084091C2085091C308B3
:104340002091C4083091C5088091BE089091BF08A3
:104350000E94990C84C284EC9AE060E570E00E94AF
:10436000C5029093C80B8093C70B009709F477C2DE
:10437000019660E070E00E944D017B018C0160932A
:10438000EE087093EF088093F0089093F10820E016
:1043900030E040E050E00E94093518160CF05FC292
:1043A000C801B7010E942B340E946B2C58C2709335
:1043B00048086093470853C2809186089091870807
:1043C000A0918808B09189088093A6089093A708C7
:1043D000A093A808B093A90880918A0890918B08AF
:1043E000A0918C08B0918D088093AA089093AB0897
:1043F000A093AC08B093AD0880918E0890918F087F
:10440000A0919008B09191088093AE089093AF0866
:10441000A093B008B093B10822C26091A608709131
:10442000A7088091A8089091A908609396087093B6
:10443000970880939808909399082091AA08309142
:10444000AB084091AC085091AD0820939A08309386
:104450009B0840939C0850939D082091AE08309192
:10446000AF084091B0085091B10859C080918608BA
:1044700090918708A0918808B09189088093B2082C
:104480009093B308A093B408B093B50880918A08BC
:1044900090918B08A0918C08B0918D088093B608FC
:1044A0009093B708A093B808B093B90880918E088C
:1044B00090918F08A0919008B09191088093BA08CC
:1044C0009093BB08A093BC08B093BD08C8C160918D
:1044D000B2087091B3088091B4089091B5086093C8
:1044E0009608709397088093980890939908209164
:1044F000B6083091B7084091B8085091B908209398
:104500009A0830939B0840939C0850939D082091F3
:10451000BA083091BB084091BC085091BD08209367
:104520009E0830939F084093A0085093A1082091C3
:1045300086083091870840918808509189080E9428
:1045400055337B018C0120E030E040E050E00E94D8
:104550000935181624F017FB109517F91095C801A6
:10456000B7012091FB063091FC064091FD06509169
:10457000FE060E940D350E9426347093BF0860939A
:10458000BE0860919A0870919B0880919C08909158
:104590009D0820918A0830918B0840918C08509199
:1045A0008D080E9455337B018C0120E030E040E013
:1045B00050E00E940935181624F017FB109517F9E2
:1045C0001095C801B7012091FF0630910007409176
:1045D0000107509102070E940D350E942634709306
:1045E000C1086093C00860919E0870919F088091F7
:1045F000A0089091A10820918E0830918F084091D9
:104600009008509191080E9455337B018C0120E065
:1046100030E040E050E00E940935181624F017FB06
:10462000109517F91095C801B70120910307309133
:10463000040740910507509106070E940D350E941E
:1046400026347093C3086093C20880918408813037
:1046500009F071C060919608709197088091980850
:104660009091990820918608309187084091880898
:10467000509189080E9455337B018C0160919A0802
:1046800070919B0880919C0890919D0820918A08C8
:1046900030918B0840918C0850918D080E945533C1
:1046A0005B016C0160919E0870919F088091A00849
:1046B0009091A10820918E0830918F084091900828
:1046C000509191080E9455333B014C01C801B7013C
:1046D000A80197010E940D357B018C01C601B5012F
:1046E000A60195010E940D359B01AC01C801B701DF
:1046F0000E9456337B018C01C401B301A4019301D4
:104700000E940D359B01AC01C801B7010E945633D0
:104710000E947435209107073091080740910907DE
:1047200050910A070E940D350E9426347093C508E7
:104730006093C40804C01092C5081092C408A090E9
:104740004A08B0904B08C0904C08D0904D08A092F9
:10475000C608B092C708C092C808D092C908209174
:10476000BE083091BF084091C0085091C10824177D
:104770003507FCF08091C2089091C30828173907CB
:10478000A4F0B901882777FD8095982F0E945934AD
:104790007B018C01C601B5012091FB063091FC061E
:1047A0004091FD065091FE06DBC9421753070CF4F9
:1047B000C1C98091C2089091C308481759070CF4E9
:1047C000B9C9BA01882777FD8095982F0E9459347E
:1047D0007B018C01C601B5012091FF0630910007D5
:1047E0004091010750910207BBC981E080934408C2
:1047F00036C01092440833C0CE010E94671B8091DE
:10480000960890919708A0919808B0919908809384
:10481000860890938708A0938808B09389088091B0
:104820009A0890919B08A0919C08B0919D08809354
:104830008A0890938B08A0938C08B0938D08809180
:104840009E0890919F08A091A008B091A108809324
:104850008E0890938F08A0939008B0939108888158
:104860008D3409F04EC3CE01019660E070E00E94E5
:104870004D010E9426347093CA0B6093C90B6C33B0
:10488000710509F4ADC26D337105E4F56C32710543
:1048900009F496C06D327105C4F46330710509F4F2
:1048A00071C06430710544F4672B09F468C062304C
:1048B000710509F0ABC363C06430710509F46CC0C5
:1048C0006530710509F0A2C371C06F32710509F43A
:1048D0009DC0603371054CF46D32710509F47DC0E3
:1048E0006E32710509F092C384C06133710509F419
:1048F000EDC0613371050CF495C06233710509F0A8
:1049000085C30CC16536710509F48CC26636710524
:10491000CCF46734710509F46EC2683471054CF447
:104920006D33710509F460C26634710509F06EC318
:104930005EC26035710509F461C26135710509F027
:1049400065C366C26936710509F492C26A3671059B
:104950004CF46636710509F471C26736710509F0C9
:1049600055C37EC26B36710509F4AAC26B36710558
:104970000CF49AC26C36710509F048C3ABC20E94B0
:104980001B0344C380918508813009F03FC387EF42
:104990009DE067EE74E091C280918508813009F056
:1049A00035C387EF9DE06FEF74E087C28091850883
:1049B000813009F02BC387EF9DE068E175E07DC28F
:1049C00081E08093820880918508813009F01EC3C0
:1049D00087EF9DE06DE275E070C2109282088091D1
:1049E0008508813009F012C387EF9DE060E575E02E
:1049F00064C281E08093430880918508813009F08A
:104A000005C387EF9DE064E775E057C21092430845
:104A100080918508813009F0F9C287EF9DE067E950
:104A200075E04BC284EC9AE066E470E00E94C50237
:104A30009093C80B8093C70B009709F4E7C20196C7
:104A400060E070E00E944D019B01AC0160934A0858
:104A500070934B0880934C0890934D0880914708C1
:104A600090914808459781F4CA01B90123E333E3E3
:104A70004BEC51E40E94BE3360934A0870934B089C
:104A800080934C0890934D0860914A0870914B08B0
:104A900080914C0890914D0820E030E040E050E0DB
:104AA0000E94093590918508181644F4913009F058
:104AB000ADC287EF9DE06BEB75E01DC0913009F052
:104AC000A5C287EF9DE069EE75E0F7C186EF9AE732
:104AD000ADE9B2E480934A0890934B08A0934C0848
:104AE000B0934D0880918508813009F08FC287EF1F
:104AF0009DE062E376E00E94722E40914A08509158
:104B00004B0860914C0870914D0887EF9DE00E9422
:104B10001E3087EF9DE065EE75E0CFC184EC9AE032
:104B200068E570E00E94C5029093C80B8093C70BA4
:104B3000009709F44BC0C0904E08D0904F080196E2
:104B400060E070E00E944D010E9426349B0170934A
:104B50004F0860934E08CB010197029778F02430FC
:104B6000310561F02830310549F02031310531F04F
:104B70002032310519F02034310541F5B90188277B
:104B800077FD8095982F0E9459342091FB06309133
:104B9000FC064091FD065091FE060E940D357B01FA
:104BA0008C01B601882777FD8095982F0E94593493
:104BB0009B01AC01C801B7010E94BE336093FB06A4
:104BC0007093FC068093FD069093FE0684EC9AE0B9
:104BD00069E570E00E94C5029093C80B8093C70BF3
:104BE000009709F44BC0C0905008D090510801962E
:104BF00060E070E00E944D010E9426349B0170939A
:104C0000510860935008CB010197029778F0243047
:104C1000310561F02830310549F02031310531F09E
:104C20002032310519F02034310541F5B9018827CA
:104C300077FD8095982F0E9459342091FF0630917E
:104C4000000740910107509102070E940D357B013A
:104C50008C01B601882777FD8095982F0E945934E2
:104C60009B01AC01C801B7010E94BE336093FF06EF
:104C700070930007809301079093020784EC9AE0F9
:104C80006AE570E00E94C5029093C80B8093C70B41
:104C9000009709F44BC0C0905208D0905308019679
:104CA00060E070E00E944D010E9426349B017093E9
:104CB000530860935208CB010197029778F0243093
:104CC000310561F02830310549F02031310531F0EE
:104CD0002032310519F02034310541F5B90188271A
:104CE00077FD8095982F0E945934209103073091C9
:104CF000040740910507509106070E940D357B017E
:104D00008C01B601882777FD8095982F0E94593431
:104D10009B01AC01C801B7010E94BE336093030739
:104D200070930407809305079093060784EC9AE03C
:104D300065E470E00E94C5029093C80B8093C70B96
:104D4000009709F463C1C0905408D09055080196AB
:104D500060E070E00E944D010E9426349B01709338
:104D6000550860935408CB010197029780F02430D6
:104D7000310569F02830310551F02031310539F025
:104D80002032310521F02034310509F03FC1B9014D
:104D9000882777FD8095982F0E9459342091070726
:104DA000309108074091090750910A070E940D357C
:104DB0007B018C01B601882777FD8095982F0E9492
:104DC00059349B01AC01C801B7010E94BE33609306
:104DD0000707709308078093090790930A0716C185
:104DE00081E08093490812C1109249080FC181E007
:104DF000809385080BC11092850808C180918508B1
:104E0000813009F003C187EF9DE06AE676E055C086
:104E100080918508813009F0F9C087EF9DE06FE748
:104E200076E04BC081E08093840887E190E0909326
:104E30004608809345088FE167E10BC081E08093CD
:104E4000840888E190E090934608809345088FE1BC
:104E500068E10E94242D6091CB0B84E070E005C0D6
:104E60001092840884E060E070E00E943829CEC08F
:104E700080918508813031F487EF9DE065E976E027
:104E80000E94912E87EF9DE06DEA76E00E94722EDF
:104E90008091CC0B0E9408290E94D002BC0187EFB0
:104EA0009DE00E94672FB2C080918508813009F093
:104EB000ADC087EF9DE060EB76E00E94912EA6C02A
:104EC00080918508813009F0A1C087EF9DE062ECF8
:104ED00076E0F3CF84EC9AE063E570E00E94C502CF
:104EE0009093C80B8093C70B009709F48FC001966D
:104EF00060E070E00E944D010E942B346093CB0B68
:104F000085C0843509F082C0CE01019660E070E072
:104F10000E944D010E9426347093CA0B6093C90B06
:104F20006A307105B1F16B3071058CF46130710537
:104F300029F1623071051CF4672BE9F067C062301B
:104F4000710509F16330710509F060C01FC06E3052
:104F5000710529F16F3071052CF46B30710509F082
:104F600055C01AC06F30710509F44BC0643171052A
:104F700009F04CC049C080E090E002C081E090E0C0
:104F80000E943C1443C082E090E0FACF83E090E0BE
:104F9000F7CF0E94AC183AC00E94A91737C084EC22
:104FA0009AE060E570E00E94C5029093C80B809380
:104FB000C70B009759F1019660E070E00E944D0127
:104FC0009B01AC0160933F087093400880934108B7
:104FD0009093420880914708909148084597B1F412
:104FE000CA01B90123E333E34BEC51E40E94BE3321
:104FF00060933F0870934008809341089093420863
:1050000005C00E949D1602C00E94F91A87EF9DE01C
:105010000E942A32882331F487EF9DE060E372E03A
:105020000E94912EDF91CF911F910F91FF90EF90F1
:10503000DF90CF90BF90AF909F908F907F906F90B8
:10504000089587EF9DE00E942A32882309F443C027
:1050500087EF9DE00E943E32282F8093C40B8A3058
:1050600079F46091C50B7091C60B84EC9AE00E94B4
:10507000211D1092C60B1092C50B10928308089543
:105080008B3319F481E08093830880918308813009
:1050900011F18091C50B9091C60BFC01EC53F54FBB
:1050A000208301969093C60B8093C50B815091404D
:1050B00094F080918508813031F487EF9DE065EDB3
:1050C00076E00E94912E1092C60B1092C50B87EFCE
:1050D0009DE00E946632089580E061E00E94242DE8
:1050E0000E942128089589E060E00E94042D89E053
:1050F00061E00E94242D88E06BE173E042E050E023
:105100000E94F42982E060E00E94042D82E160E0C8
:105110000E94042D84E160E00E94042D83E060E0A1
:105120000E94042D83E160E00E94042D85E160E08F
:105130000E94042D87E161E00E94042D86E161E078
:105140000E94042D88E161E00E94042D88E160E066
:105150000E94242D8AE161E00E94042D89E161E032
:105160000E94042D8BE161E00E94042D8BE160E040
:105170000E94242D8DE161E00E94042D8CE161E00C
:105180000E94042D8EE161E00E94042D8EE160E01A
:105190000E94242D80E061E00E94042D80E060E008
:1051A0000E94242D88E161E00E94042D88E160E0E6
:1051B0000E94242D8BE161E00E94042D8BE160E0D0
:1051C0000E94242D8EE161E00E94042D8EE160E0BA
:1051D0000E94242D8FEF61E00E94042D8FEF60E08C
:1051E0000E94242D87EF9DE040E05BE460E070E0EA
:1051F0000E9431311092C60B1092C50B0E944003E1
:1052000008950E94A32C0E9473280E946C28FDCF51
:10521000382F3F70209156082295220F220F207CB4
:10522000232B20937C0020917B0086958695869584
:1052300090E08170907033E0880F991F3A95E1F704
:10524000277F282B20937B0080917A0080648093B5
:105250007A0080917A0086FDFCCF20917800409101
:105260007900942F80E030E0282B392BC901089574
:105270001F93CF93DF93182FEB0161E00E94042D61
:10528000E12FF0E0E254FE4F8491833051F480919D
:105290008000806880938000D0938900C09388004C
:1052A0009FC0843051F480918000806280938000A0
:1052B000D0938B00C0938A0093C0813041F4209733
:1052C00009F487C084B5806884BDC7BD89C08230B9
:1052D00041F4209709F47DC084B5806284BDC8BDC7
:1052E0007FC0863041F48091B00080688093B00028
:1052F000C093B30075C0873041F48091B0008062E4
:105300008093B000C093B4006BC0883051F480919A
:105310009000806880939000D0939900C09398008B
:105320005FC0893051F4809190008062809390003A
:10533000D0939B00C0939A0053C08A3051F480915F
:105340009000886080939000D0939D00C0939C0053
:1053500047C08B3051F48091A00080688093A000FA
:10536000D093A900C093A8003BC084918C3051F425
:105370008091A00080628093A000D093AB00C09386
:10538000AA002EC08D3051F48091A00088608093D7
:10539000A000D093AD00C093AC0022C08E3051F479
:1053A00080912001806880932001D0932901C093CF
:1053B000280116C08F3051F48091200180628093C3
:1053C0002001D0932B01C0932A010AC0C038D10517
:1053D0001CF4812F60E002C0812F61E00E94242D27
:1053E000DF91CF911F910895883008F078C0E82FA1
:1053F000F0E0EE0FFF1FE253F44F718360838330C0
:10540000D9F0843030F4813009F444C0823060F443
:1054100039C0853051F18530D8F0863009F446C066
:10542000873009F05CC04FC0809169008C7F842B6D
:1054300080936900E89A089580916900440F551F90
:10544000440F551F837F842B80936900E99A089548
:105450008091690074E0440F551F7A95E1F78F7CC5
:10546000842B80936900EA9A08958091690066E030
:10547000440F551F6A95E1F78F73842B8093690061
:10548000EB9A089580916A008C7F842B80936A0048
:10549000EC9A089580916A00440F551F440F551FE0
:1054A000837F842B80936A00ED9A089580916A002F
:1054B00024E0440F551F2A95E1F78F7C842B8093BD
:1054C0006A00EE9A089580916A0096E0440F551F95
:1054D0009A95E1F78F73842B80936A00EF9A089571
:1054E0001F920F920FB60F920BB60F9211242F93AB
:1054F0003F934F935F936F937F938F939F93AF935C
:10550000BF93EF93FF938091D20B9091D30B892B94
:1055100029F0E091D20BF091D30B0995FF91EF9117
:10552000BF91AF919F918F917F916F915F914F91BB
:105530003F912F910F900BBE0F900FBE0F901F90B9
:1055400018951F920F920FB60F920BB60F9211245F
:105550002F933F934F935F936F937F938F939F937B
:10556000AF93BF93EF93FF938091D40B9091D50BA2
:10557000892B29F0E091D40BF091D50B0995FF917F
:10558000EF91BF91AF919F918F917F916F915F91BB
:105590004F913F912F910F900BBE0F900FBE0F9028
:1055A0001F9018951F920F920FB60F920BB60F9285
:1055B00011242F933F934F935F936F937F938F9318
:1055C0009F93AF93BF93EF93FF938091D60B9091EE
:1055D000D70B892B29F0E091D60BF091D70B0995C9
:1055E000FF91EF91BF91AF919F918F917F916F91BB
:1055F0005F914F913F912F910F900BBE0F900FBE77
:105600000F901F9018951F920F920FB60F920BB626
:105610000F9211242F933F934F935F936F937F9338
:105620008F939F93AF93BF93EF93FF938091D80B8A
:105630009091D90B892B29F0E091D80BF091D90BDF
:105640000995FF91EF91BF91AF919F918F917F91BC
:105650006F915F914F913F912F910F900BBE0F90E3
:105660000FBE0F901F9018951F920F920FB60F92BA
:105670000BB60F9211242F933F934F935F936F9329
:105680007F938F939F93AF93BF93EF93FF938091FB
:10569000CE0B9091CF0B892B29F0E091CE0BF0919E
:1056A000CF0B0995FF91EF91BF91AF919F918F9192
:1056B0007F916F915F914F913F912F910F900BBE12
:1056C0000F900FBE0F901F9018951F920F920FB65C
:1056D0000F920BB60F9211242F933F934F935F932A
:1056E0006F937F938F939F93AF93BF93EF93FF93AA
:1056F0008091D00B9091D10B892B29F0E091D00BA8
:10570000F091D10B0995FF91EF91BF91AF919F91CE
:105710008F917F916F915F914F913F912F910F905A
:105720000BBE0F900FBE0F901F9018951F920F92F7
:105730000FB60F920BB60F9211242F933F934F93F6
:105740005F936F937F938F939F93AF93BF93EF93E9
:10575000FF938091DA0B9091DB0B892B29F0E0917C
:10576000DA0BF091DB0B0995FF91EF91BF91AF91AF
:105770009F918F917F916F915F914F913F912F9169
:105780000F900BBE0F900FBE0F901F9018951F9299
:105790000F920FB60F920BB60F9211242F933F93D7
:1057A0004F935F936F937F938F939F93AF93BF9329
:1057B000EF93FF938091DC0B9091DD0B892B29F007
:1057C000E091DC0BF091DD0B0995FF91EF91BF911A
:1057D000AF919F918F917F916F915F914F913F9189
:1057E0002F910F900BBE0F900FBE0F901F9018952A
:1057F0001F920F920FB60F9211242F933F938F9306
:105800009F93AF93BF938091E20B9091E30BA09194
:10581000E40BB091E50B3091E60B0196A11DB11D93
:10582000232F2D5F2D3720F02D570196A11DB11D7F
:105830002093E60B8093E20B9093E30BA093E40B91
:10584000B093E50B8091DE0B9091DF0BA091E00B04
:10585000B091E10B0196A11DB11D8093DE0B9093D9
:10586000DF0BA093E00BB093E10BBF91AF919F9141
:105870008F913F912F910F900FBE0F901F90189511
:105880006FB7F89486B590E0A0E0B0E0A89B08C0A0
:105890000097A105B10521F480E091E0A0E0B0E01F
:1058A0002091DE0B3091DF0B4091E00B5091E10B2A
:1058B0006FBF542F432F322F2227280F391F4A1F23
:1058C0005B1F82E0220F331F441F551F8A95D1F7BB
:1058D000B901CA010895EF92FF920F931F937B01C4
:1058E0008C018FB7F8944091E20B5091E30B6091DB
:1058F000E40B7091E50B8FBF2FB7F8948091E20B0A
:105900009091E30BA091E40BB091E50B2FBF841BAA
:10591000950BA60BB70BE816F9060A071B0760F7ED
:105920001F910F91FF90EF900895019759F0FC019E
:10593000EE0FFF1FEE0FFF1F32978FB7F8943197CE
:10594000F1F78FBF0895789484B5826084BD84B5E3
:10595000816084BD85B5826085BD85B5816085BD6A
:10596000EEE6F0E0808181608083E1E8F0E0808114
:1059700082608083808181608083E0E8F0E08081C4
:1059800081608083E1EBF0E0808184608083E0EBE4
:10599000F0E0808181608083E1E9F0E080818260D5
:1059A0008083808181608083E1EAF0E08081826091
:1059B0008083808181608083E1E2F1E08081826088
:1059C0008083808181608083E0E9F0E08081816074
:1059D0008083E0EAF0E0808181608083E0E2F1E0B2
:1059E000808181608083EAE7F0E080818460808349
:1059F00080818260808380818160808380818068F3
:105A000080831092C1000895282F30E0C901885882
:105A10009E4FFC0194912E5C3E4FF90184918823A6
:105A200091F0E82FF0E0EE0FFF1FEC51FF4FA59132
:105A3000B491662329F48C91909589238C930895D1
:105A40008C91892B8C930895482F50E0CA01825481
:105A50009E4FFC012491CA0188589E4FFC019491ED
:105A60004E5C5E4FFA013491332309F477C0222350
:105A700009F462C0233021F4809180008F7705C043
:105A8000243031F4809180008F7D8093800054C059
:105A9000213019F484B58F7704C0223021F484B505
:105AA0008F7D84BD49C0263021F48091B0008F776E
:105AB00005C0273031F48091B0008F7D8093B00015
:105AC0003BC0283021F4809190008F7705C02930A9
:105AD00031F4809190008F7D809390002DC02A300A
